:020000040800F2
:1000000000200020E9440008394200083B42000873
:1000100000000000000000000000000000000000E0
:100020000000000000000000000000002530000873
:10003000000000000000000091300008D5300008EA
:100040003945000839450008394500083945000898
:100050003945000839450008394500083945000888
:10006000394500083D420008394500083945000877
:10007000394500084D420008394500083945000857
:1000800039450008394500080000000039450008DE
:100090003945000839450008394500083945000848
:1000A0003945000839450008394500083945000838
:1000B0003945000800000000394500080000000034
:1000C00010B5064C2378002B07D1054B002B02D02E
:1000D000044800E000BF0123237010BD0800002089
:1000E0000000000088480008044B10B5002B03D026
:1000F0000349044800E000BF10BDC04600000000F6
:100100000C00002088480008002243088B4274D36A
:1001100003098B425FD3030A8B4244D3030B8B4208
:1001200028D3030C8B420DD3FF22090212BA030C11
:100130008B4202D31212090265D0030B8B4219D3F2
:1001400000E0090AC30B8B4201D3CB03C01A524112
:10015000830B8B4201D38B03C01A5241430B8B425A
:1001600001D34B03C01A5241030B8B4201D30B0343
:10017000C01A5241C30A8B4201D3CB02C01A52416A
:10018000830A8B4201D38B02C01A5241430A8B422D
:1001900001D34B02C01A5241030A8B4201D30B0216
:1001A000C01A5241CDD2C3098B4201D3CB01C01A30
:1001B000524183098B4201D38B01C01A524143093A
:1001C0008B4201D34B01C01A524103098B4201D328
:1001D0000B01C01A5241C3088B4201D3CB00C01A95
:1001E000524183088B4201D38B00C01A524143080D
:1001F0008B4201D34B00C01A5241411A00D2014632
:10020000524110467047FFE701B5002000F006F8A4
:1002100002BDC0460029F7D076E770477047C04658
:100220008446101C62468C46191C634600E0C0469A
:100230001FB500F041FC002801D40021C8421FBDB9
:1002400010B500F09BFB4042013010BD10B500F02E
:1002500033FC002801DB002010BD012010BDC0468A
:1002600010B500F029FC002801DD002010BD0120A0
:1002700010BDC04610B500F0BBFB002801DC00201B
:1002800010BD012010BDC04610B500F0B1FB002824
:1002900001DA002010BD012010BDC0461C21012341
:1002A0001B04984201D3000C10391B0A984201D359
:1002B000000A08391B09984201D30009043902A237
:1002C000105C40187047C04604030202010101019E
:1002D000000000000000000070B500220C4B04007C
:1002E0000D00FFF7D1FF002804D12000290001F004
:1002F000DBF970BD064B00222000290000F0BEFE95
:1003000001F0D2F980231B069C466044F1E7C04609
:100310000000E041F0B557464546DE464E46E0B5A2
:100320004C000E0387B0834692461D008046360B74
:10033000640DCF0F002C4FD06F4B9C4235D08023E3
:10034000420F1B04F600134333439946C3009846FB
:100350006A4B00269C460023644403932B031B0B2B
:100360009B466B00ED0F50465B0D01955ED0624AD7
:10037000934253D05A46D1008022400F12040243C8
:100380000A4393465246D1005C4A94460022634495
:100390003800684084460290E41A16430F2E00D9B4
:1003A000B4E0574BB6009B599F4603003343994630
:1003B0006CD100239846023308260393CEE7CB4640
:1003C0004146039A0197022A65D1019B4A4C9C46FB
:1003D0000023002298466BE00300334399464ED039
:1003E000002E00D1BCE13000FFF758FF03000B3BAB
:1003F0001C2B00DDACE11D22D31A5A460100DA4065
:1004000008398E401300334399465B468B4098462B
:1004100000233C4C0026241A03939FE751465A467A
:10042000114329D1002293460232B1E759460143D4
:100430001ED05B46002B00D19EE15846FFF72EFFF1
:1004400003000B3B1C2B00DD8FE102005946083AEC
:1004500091408B461D21CB1A5146D9400B0059467D
:100460000B4351469B469140264B00221B1A8FE7B7
:10047000002301229B468BE75146032288E7002395
:100480009846013304260024039367E70323B1460B
:1004900003930C2662E7032A00D15CE2019B012A48
:1004A00000D0E4E113409C4600230024002298463B
:1004B00000211203130B0A0D12051A432305124CD7
:1004C00040462240134362465B00D2075B08134359
:1004D000190007B03CBC90469946A246AB46F0BD19
:1004E000002380229C4612039846034CE0E7002339
:1004F000014C00229846DBE7FF07000001FCFFFFEC
:10050000044900080DFCFFFFFFFF0F80D94500D90B
:1005100039E100D134E1002346464D469A46013C7C
:100520005B460A0E1B021A430B02170C03931304BB
:100530001B0C3900280090460193FFF7E5FD0200EF
:10054000019B83465A43280039009146FFF762FE1B
:10055000350C09040D43A9450DD95B464544013BC3
:10056000A84500D93AE1A94500D837E102235B420A
:100570009C464544E3444B46EB1A3900180004936B
:10058000FFF7C2FD019B05004343390004989946DB
:10059000FFF740FE330409041B0C0B43994509D9AE
:1005A00043446A1E984500D91AE1994500D817E1DD
:1005B000023D43444A469B1A5A4612042A43039971
:1005C0009346100C0A0C914609045A46090C4E46F3
:1005D0000D001204120C45430591514372437043C0
:1005E00052190E0CB218954203D980256D02AC4603
:1005F0006044150C09041204090C2818521883428F
:1006000000D2CEE000D1C8E01D1A53469E1AB24572
:1006100092415242AB1A9A46984500D117E13900EF
:100620001800FFF771FD019B050043433900504658
:100630000493FFF7EFFD04980B04310C1943884233
:1006400009D941446B1E884500D907E1884200D88A
:1006500004E1023D4144049BCB1A18003900049385
:10066000FFF752FD019B82464343390004980193F2
:10067000FFF7D0FD01980B043104090C194388429F
:100680000DD953464144013B884500D9E8E08842F2
:1006900000D8E5E002235B429C464144E244019BD2
:1006A0002D04CE1A51462943059D4F462A000B04BE
:1006B000080C1B0C5A4345437B4378435B19170CCA
:1006C000FB189D4203D980256D02AC4660441D0C89
:1006D00012041B04120C28189B18864200D293E0C7
:1006E00000D18EE001231943A04BE318002B00DC5E
:1006F00099E04A0700D09EE05A46D20106D55A46F4
:100700009B4B1A4080239346DB00E318994A93429F
:1007100068DD0123029A984C1A40002394469846BB
:100720000022C5E680224B46120313420AD05B46E4
:10073000134206D11A431203120BAC4688468E4C64
:10074000B6E64B461A431203120BBC468A4CAFE680
:1007500003005A46283B9A4000239146984657E6A4
:100760005846FFF79BFD203040E603005246283BE9
:100770009A400021934677E6FFF790FD20305FE630
:10078000884500D2C7E64B46DE075D0843465B0856
:100790001E434346DB079A46C2E60025924500D336
:1007A00033E7039E5946B446E244B245AD416D423B
:1007B0004544EB180139984507D2984200D97FE0AB
:1007C00000D1BCE01D1A8B461FE79845FAD1039D66
:1007D0005545F2D943468B461D1A16E79B46CAE695
:1007E0001500E7E65A46C90852070A435B059046DA
:1007F0005C0D5A460123029952021940120B8C4695
:1008000056E6002B00D16FE746444A1EB04529D971
:100810001100864200D065E7039A934200D061E759
:1008200062E7012149420120C21A382A21DD029BD8
:1008300003409C4638E60F220A40042A00D15BE7B9
:100840000A00111D914292415242934454E7474B92
:10085000E318002BE5DD01225242F2E71D00FAE623
:100860009A461CE7B04239D86ED011003AE702939D
:100870003AE71F2A3CDC20239B1A0C00584699407B
:1008800098404B1E99415B46D440D34020430843D7
:100890001A00430709D00F230340042B05D00100A1
:1008A000081D88429B415B42D21813023AD50123AE
:1008B000029A01241A400023944698460022F7E544
:1008C000022149428C46039DE344AC46E244AA45DA
:1008D000AD416D424544ED182D1A96E68A1E0399E6
:1008E0004D008D42894149424144761803958FE776
:1008F0001F204042C31A5846D8400300202A28D05F
:1009000040205D46821A954029434A1E9141194371
:10091000072300220B4009D00F2300220B400800C0
:10092000042BBDD1010053075202120BC908194311
:10093000012388460299002419408C46B8E55245A7
:10094000BED88B46002560E6039D9D42C6D31100AC
:1009500062E70025D8E780225B4612031A43019B19
:100960001203120B9C468846034CA1E5FF030000CE
:10097000FFFFFFFEFE070000FF070000F0B54F4637
:100980004646D6465C00C0B51F03DB0F9A46174BA0
:100990000E034D0084468046360B6D0DC90F9146FF
:1009A0003F0B640D01209D4208D09C4201D0A5421E
:1009B0000BD01CBC90469946A246F0BD634633431B
:1009C000F7D1AC42F5D13A43F3D10120BE42F0D188
:1009D000C845EED1514507D0002DEAD163461E43EC
:1009E0003000461EB041E4E70020E2E7FF070000C8
:1009F000F0B54546DE4657464E46E0B51F033D0B73
:100A00002C4F0E034C00AB465D008446360B640D44
:100A1000C90F90466D0DDB0FBC422AD0254FBD4259
:100A20002DD0002C0FD13043070081467842784109
:100A3000C0B2002D17D15F463A4314D14B46002077
:100A4000002B0AD006E0002D02D15846024301D007
:100A5000994218D04842012108433CBC904699462F
:100A6000A246AB46F0BD0028F2D00120013B18435E
:100A7000F3E737000743D1D002204042EDE75F465D
:100A80001743CED0F8E7AC42E4DC03DA481E01217C
:100A90000843E2E75E45DDD806D000205E45DCD2A3
:100AA0000123481E1843D8E7C445D3D80020C445C5
:100AB000F6D3D2E7FF070000F0B54E464546DE46C6
:100AC00057465C00E0B51F03DB0F99462A4B0E0327
:100AD0004D00C90F8446360B6D0D8B4690463F0B7B
:100AE000640D9D4220D0244B9C4222D0002D12D177
:100AF000304343424341DBB2002C1FD0002B0CD0CB
:100B00004B460120013B034318003CBC90469946EC
:100B1000A246AB46F0BD002C16D0CB4517D05B46A5
:100B2000594201230B43EFE7310002230143EBD18C
:100B3000D9E7390002231143E6D1D7E73A43DDD1A3
:100B400000230028E0D0EAE73A43E6D1E7E7A542F0
:100B5000E5DC05DBBE42E2D807D00023BE42D3D29B
:100B60005946012301390B43CEE7C445D7D80023AA
:100B7000C445F5D3C8E7C046FF070000F0B55746A7
:100B80004546DE464E46E0B50C0398464E00230B24
:100B900087B0070092469B46760DCD0F002E6BD096
:100BA0006D4B9E4235D080245B46420F2404DB000F
:100BB00014431C43C3009946684BA3469C4600233C
:100BC00000276644029343461C035A00DB0F50463D
:100BD000240B520D984600D176E05F4B9A426DD0BF
:100BE0008023410F1B040B435C49E4008C461C43EB
:100BF000C300002062444146B6186940721C01914E
:100C0000944607430F2F00D9B0E0554ABF00D25990
:100C100097465B460343994600D087E000239B46F6
:100C2000023308270293CEE742460192022867D09A
:100C3000032800D10EE2012800D062E10023002445
:100C40000022994601990140CDB2002112030B0DFB
:100C5000120B1B051343434A240513401C43640035
:100C6000ED0764082C434846210007B03CBC904681
:100C70009946A246AB46F0BD034399464FD05B462A
:100C8000002B00D189E15846FFF708FB03000B3B1E
:100C90001C2B00DD7AE11D22D31A3A0001005C46CC
:100CA000DA4008398C4013008F4023439B46B946F5
:100CB00000232D4E0027361A029384E75346234320
:100CC0002AD10024022096E75346234320D0002C4B
:100CD00000D157E12000FFF7E1FA03000B3B1C2B8A
:100CE00000DD49E11D21CB1A51460200D94053468F
:100CF000083A944093400C431B4A121A00207AE7AA
:100D00000125019B144C1D400023002299469CE7BD
:100D10000024002201206EE7534603206BE70023E6
:100D20009B4601330427002602934CE703238146A8
:100D30000C27029347E780220023002512039946DF
:100D4000054C82E75C464B4602986FE75C464B4693
:100D5000019502986AE7C046FF07000001FCFFFF0B
:100D600044490008FFFF0F800DFCFFFF4A4649463B
:100D7000170C1A0C1B041B0C08041900000C41432F
:100D80001500884619007D4379430395894629005B
:100D9000150045434D44029545462D0CAA46029D3B
:100DA0005544A94506D98A46802149028946CA4444
:100DB00051460391290C0491414609042D04090C64
:100DC00088462900250C24044144240C0591210067
:100DD00041438846210079438A466843414650444E
:100DE0008146080C48446F43824503D9802149025B
:100DF00089464F44010C89463900494402914146D5
:100E00000F0404993F0C88460004C01980444146F1
:100E1000049159460F0C0904090C884659438A4627
:100E200039005143894641464A435146090C8B4695
:100E30007B43D2185A44934203D980235B029B46DA
:100E4000D94451460904090C8A46414661437C4312
:100E5000130C12044B445244A1468A463C004146BE
:100E60006C434D4351464D440F0C7D19A94503D9A0
:100E70008021490288464444049F0399B84641446E
:100E80008B468345804141428846514608042F04E1
:100E9000000C3F185846029910188946904292411A
:100EA0004F44BA46524299469346C244D144CB4439
:100EB0008F42BF41C245894199459B41934592412B
:100EC0007F4249422D0C52420F435B4213437F192C
:100ED000FF185B463C19DB0D059A64021C43430274
:100EE00013435D1EAB415A46C00D034352021343E8
:100EF000E20156D501205A0803401343E207134389
:100F000064085A48604400284DDD5A0709D00F2272
:100F10001A40042A05D01A1D9A429B415B42E418EC
:100F20001300E20104D58020514AC00014406044FF
:100F3000504A904200DDE3E60125DB0862071A43D0
:100F40006402019B9146220B4405640D1D407CE622
:100F5000802259461203114208D0144206D122437E
:100F60001203120B45469946434C6EE65B461A4304
:100F70001203120B404C68E603005446283B9C4089
:100F80000023B9E6FFF78AF92030A6E60300283BE4
:100F90009F400023BB4699468AE6FFF77FF9203041
:100FA00074E6B446ADE701252A1A382A06DD019B0E
:100FB00000241D4000230022994646E61F2A21DC1A
:100FC00020252000AD1A1E00AB40A840D6405D1E73
:100FD000AB4130431843D440430709D00F230340AB
:100FE000042B05D00300181D98429B415B42E41876
:100FF000230221D50125019B01241D40002300224D
:10100000994622E61F2521006D42281AC14008009A
:10101000202A1DD05F35AA1A944023435C1EA341A9
:10102000072503431D400022002D09D00F22002474
:101030001A401800042AD6D1030065076402220B67
:10104000DB082B4301259946019B00241D40FCE54C
:101050000024E2E7802201251203224301991203B2
:10106000120B0D409946044CEFE5C046FF0300000B
:10107000FFFFFFFEFE070000FF070000F0B5464639
:10108000D6464F460C03C0B5CD0F4E00610A440F43
:101090000C43C1005800400D84468A460F001903D6
:1010A000500F490A0143C648760DA846DB0FD2000F
:1010B000844500D1D8E001204340AB4200D1A6E0F6
:1010C0006046351A002D00DC05E1002810D10B0028
:1010D000134300D1D7E06B1E002B00D04BE15346E9
:1010E0009F1ABA458041641A4042241A01261EE024
:1010F000B34B9E4248D080231B041943382D00DD9A
:1011000019E11F2D00DD4CE120230F005B1B1000B7
:101110009A409F40E840531E9A41E94007431743D5
:101120005346DF1B611ABA45A44164420C1B2302DB
:1011300000D4C5E06402650A002D00D1F6E0280065
:10114000FFF7ACF80300083B1F2B00DDE9E020228D
:101150003C00D21A9D40D4409F4025439E4200DD72
:10116000DBE09E1B731C1F2B00DD0AE120223800F0
:10117000D21A290097402C009140D8407A1E9741FE
:10118000DC40002601430F437B0709D00F233B407F
:10119000042B05D03B1DBB42BF417F42E4191F0019
:1011A000230225D5864B01369E4200D1AFE0854B08
:1011B00001251C4043466207FF0864027605174379
:1011C000240B760D1D4000212403230B0C0D7E4AB9
:1011D00024051C431440330523435B00ED075B08E3
:1011E0002B43380019001CBC90469946A246F0BD1E
:1011F000012543466207FF081743E4081D40704B72
:101200009E4236D024037605240B760DDBE7634639
:10121000F31A002B00DC94E06046002835D06848C3
:101220008642B1D080273F043943382B00DCFDE0F3
:101230000A43170000217A1E9741574457458041C1
:10124000091944420C1923023AD55D4B01369E42DE
:1012500000D14BE101225B4B1C407B0817401F4330
:10126000E207174364088FE70800104300D024E723
:1012700021E723003B4300D1B9E18022120314434C
:101280002403240B9FE72E007EE70800104300D1C3
:10129000CAE0581E8446002800D0E7E05244524578
:1012A000804164184042241817000126230207D504
:1012B0000226CFE764462C4300D1B3E12C006746F9
:1012C0007B0700D062E76307FF081F430125434601
:1012D000E4081D4093E7002D78D1751C6D056D0D58
:1012E000012D00DCF2E05046801A8245BF41651AAC
:1012F0007F42ED1B8446280200D48CE05046171A2A
:10130000BA4292410C1B5542651B984614E70125D1
:10131000434600241D40002755E72A4CF61A2C406E
:1013200032E73D0028388540002717E73800FEF7F0
:10133000B5FF203006E70A43170000217A1E9741C7
:10134000EEE6002B00D0E5E0731C9C465B055B0DD0
:10135000012B00DC9FE01A4B9C4500D1C5E05244B4
:1013600052458041641840422418E7075208174349
:101370006408664608E71248854200D185E01D00F2
:10138000BCE629001F3EF140202B00D17FE0402227
:10139000D31A9D402F437D1EAF4100240F430026EA
:1013A0008EE72B000F00203BDF40202D71D0402323
:1013B0005D1BA9400A43511E8A4100211743AFE635
:1013C000FF070000FFFF7FFFFFFF0F80002E3ED0D2
:1013D000B34EB44545D0802636046D423443382D93
:1013E00000DDA8E01F2D00DD1FE12026270050466C
:1013F000761BB740E84007435046B040461EB04118
:10140000EC403843171ABA4292410C1B5242A41ABC
:10141000664698468BE6644667462C4300D08BE6CA
:10142000002500260027EAE61E00ADE61F2B60DC43
:101430002027F81A0F00844687401000D840074341
:1014400060468240501E8241D9401743F5E626008F
:101450005046064305D0ED43002DD3D0904EB44501
:10146000BDD10C001700664698468DE68C48834235
:101470000BD06346D9E6002D00D096E0080010435B
:1014800000D1E2E00C0017009846854E7CE600256E
:1014900080E700218EE7230050460343002E00D052
:1014A000A8E0002B00D1DEE00B00134300D16BE677
:1014B00052445245804164184042241817002302C8
:1014C00000D4FDE6774B66461C405DE6250050469D
:1014D0000543002ECFD1002D4FD10C00144300D175
:1014E000A0E00C00170098464EE666460024002750
:1014F00085E61F000800203FF8400700202B00D1A0
:101500008EE04020C31A99400A43511E8A410021AF
:10151000174392E6002E14D126005046064362D0AF
:10152000DB43002B5CD187189742924164185242EA
:10153000A418664687E650462043441EA041002476
:1015400060E7574EB4454ED0802636045B423443A4
:10155000382B00DD7FE01F2B00DD8BE020262700ED
:101560005046F61AB740D84007435046B040461E92
:10157000B0410743DC40BF18D6E70D00154300D14A
:1015800002E65046801A8245BF41651A7F42ED1B34
:101590008446280200D48DE65046171ABA4292417A
:1015A0000C1B5242A41A9846EEE50D00154300D1DB
:1015B0006BE750466707C00807438020E408000334
:1015C000044207D0CD08054204D12C009846D70824
:1015D00049070F437B0FE4001C43FF00304ED3E567
:1015E0002F4EB445B4D10C0017006646CCE5002759
:1015F0000024E8E5002B39D00B00134300D144E769
:10160000C008670707438020E40800030442E1D0D4
:10161000CB080342DED1D70849070F431C00D9E7A6
:10162000002171E700250027E9E52E002700203E74
:10163000F740202D2FD04026751BAC40504620434C
:10164000441EA04100243843DCE680240025240306
:10165000134E0027D3E5504620430700781E8741EC
:101660000024BF1860E70C0017008DE50C00170080
:101670000B4E89E51E002700203EF740202B0CD0A2
:101680004026F31A9C4050462043441EA041074385
:101690000024BF1848E70024D0E70024F3E7C04641
:1016A000FF070000FFFF7FFF30B5134D0A034B001B
:1016B000120B5B0DC90F0024AB4210DD0F4CA3428F
:1016C0000FDC80240E4D64032243ED1A1F2D0BDD29
:1016D0000C48C31ADA405442002900D114002000FB
:1016E00030BD094BCC18FAE7084CE840A4466344E7
:1016F0009A400243EFE7C046FE0300001D040000CD
:101700003304000013040000FFFFFF7FEDFBFFFF29
:1017100010B5041E28D0FEF7C1FD154B154A1B1A43
:10172000D21A1F2A15DD144AD21A9440002224032B
:101730005B05240B5B0D0021100024030A0D240B14
:10174000120522430D4C1B05224013435B00590830
:1017500010BD210091400A000B21081AC4405B050E
:101760002403240B5B0DE6E7002300240022E2E7BC
:101770001E0400003304000013040000FFFF0F806C
:1017800010B5064A136810210B431360002002F0C5
:1017900017FD02F0F7FC002010BDC04600200240FB
:1017A000024A1368013313607047C0466C0D002075
:1017B000014B18687047C0466C0D002030B583B0EF
:1017C0000400002301930268916803330B40012B4E
:1017D00011D00023002B42D19168224B194216D11F
:1017E000936801210B4393601F4B18681F49FEF754
:1017F0008BFC019018E01368DB0704D4D3681B044A
:1018000003D40023E6E70123E4E70123E2E7636C66
:10181000102213436364A36C0F3A1343A3640120A3
:101820001EE0019B013B0193019B002BF9D1FFF7C7
:10183000BFFF050023681B68DB070ED4FFF7B8FF66
:10184000401B0228F6D9636C102213436364A36C17
:101850000F3A1343A364012002E0002000E00020BF
:1018600003B030BD170000800400002040420F008C
:1018700070B5041E00D1B9E0436C002B00D180E0AC
:10188000636CDB0600D5ABE02268936804210B4053
:1018900000D0A5E0616C564801400630FF3001439E
:1018A0006164906803210140012970D00021002962
:1018B0000CD1D16818208143A0680143D160216810
:1018C0000A6992009208606802430A612168CA6846
:1018D00048480240CA60A2699203E169C9030A4309
:1018E000206A41030A43616B01295CD080214901D0
:1018F0000A43E1680A432169022956D01343226B47
:1019000052001343626A012A51D0A26AC221FF31F8
:101910008A4202D0E16A0A4313432168CA681A4323
:10192000CA60A26B802149058A420DD0012A0BD0E2
:10193000022A09D0032A07D0042A05D0052A03D099
:10194000062A01D0072A0AD120684169072291435B
:10195000416120684169A56B2A400A4342612268BF
:10196000D26825490A40934230D0636C12229343D7
:10197000023A13436364A36C0F3A1343A364012038
:1019800033E083644022835402F010F978E7116851
:10199000C90704D4D168090403D4002187E70121D1
:1019A00085E7012183E71900A2E70423A6E70028C1
:1019B00003D1802252021343A7E7626C20210A431D
:1019C0006264A26C1F390A43A2649EE70023A364E9
:1019D000636C03229343023A13436364002004E0E0
:1019E000636C102213436364012070BD0120FCE787
:1019F000FDFEFFFF1902FEFFE7FF3F83F8B504007D
:101A00000E00170003689B685B0702D502252800BB
:101A1000F8BD4023C35C012B3AD001224023C254BD
:101A2000C369012B32D0FFF7C9FE0500002DEED1AE
:101A3000636C184A1A4080235B00134363640023DD
:101A4000A3644022A354E36B134A9A62E36B134AE4
:101A5000DA62E36B124A1A6323681C221A60226856
:101A6000536810210B4353602268D3680F390B432E
:101A7000D360216840313B003200E06B00F098F900
:101A80002268936804210B439360C0E70025CDE7EB
:101A90000225BCE7FEF0FFFFA91A00081B1B000887
:101AA000271B00087047000010B5436A5A6C50218C
:101AB00011422BD1596C802292000A435A641A6851
:101AC000D068C0210901084213D1196A002910D138
:101AD000116809070DD5916849070ED451680C208B
:101AE000814351605A6C0B490A400431FF310A436B
:101AF0005A641800FFF7D6FF10BD5A6C20210A4324
:101B00005A649A6C1F390A439A64F2E7DB6B1B6BC9
:101B10009847F1E7FEFEFFFF704710B5406AFFF7F8
:101B2000FBFF10BD704710B5406A436C4022134361
:101B30004364836C3C3A13438364FFF7F3FF10BDA7
:101B400030B583B00400002301934033C35C012B04
:101B500000D18AE001224023C25403689A685207E8
:101B600075D4434A4868904256D09A6A01200D685D
:101B7000A84002439A62A36B8022520593421ED072
:101B8000012B1CD0022B1AD0032B18D0042B16D0FB
:101B9000052B14D0062B12D0072B10D022685069C9
:101BA000072303408868984209D050690723984367
:101BB0005061206842698D682B40134343610B6874
:101BC0001A00103A022A4CD82A4A1268102B0ED05A
:101BD000112B09D080235B041343264A13600B6842
:101BE000102B07D0002037E08023DB03F4E78023AD
:101BF0001B04F1E7204B18682049FEF785FA8300A3
:101C000018184300019302E0019B013B0193019BE3
:101C1000002BF9D100201FE09A6A01200D68A8402E
:101C200082439A620B681A00103A022A1BD8114AA2
:101C30001268102B09D0112B05D0114B13400D4AFF
:101C40001360002008E00F4BF8E70F4BF6E7436CFA
:101C5000202213434364012000224023E25403B0B6
:101C600030BD0020F8E70020F6E70220F7E7C04685
:101C700001100000082701400400002040420F002E
:101C8000FFFFFFFEFFFFBFFFFFFF7FFF70B50028D4
:101C900011DB8308144DC0339B005C5903221040B4
:101CA000C000FC3216008640B44389010A408240DD
:101CB00022435A5170BDC0B20F230340083B9B081A
:101CC00006339B00094A944663445D680322104032
:101CD000C000FF2422008240954389010C408440CB
:101CE0002C435C60E6E7C04600E100E000ED00E068
:101CF0001F2318401E3B8340014A13607047C046B3
:101D000000E100E070B5C56B0124066CB4406C6066
:101D1000046863604368102B04D00368996003680B
:101D2000DA6070BD03689A600368D960F9E7000063
:101D300010B504000368064A944663441800142151
:101D4000FEF7E2F980002064024BE36310BDC04659
:101D5000F8FFFDBF0000024070B5041E24D021250D
:101D60000223435501680B68104A1A404368806893
:101D70000343E06803432069034360690343A069A8
:101D80000343E069034313430B602000FFF7D0FFD8
:101D90000023A362E36223636363A36301226255AA
:101DA0001F32A354002070BD0120FCE70FC0FFFFCD
:101DB00070B504002020205C012832D001252020AD
:101DC00025540130205C012804D000222023E25455
:101DD000022070BD0135203025540020A063256805
:101DE00028680126B04328602000FFF78BFFE36AD4
:101DF000002B0BD0226813680E210B43136022685E
:101E0000136801210B4313600020E2E72268136886
:101E10000A210B4313602268136806398B43136051
:101E2000EDE70220D5E770B5C36B1A680468256832
:101E3000016C04238B40134212D06B0710D523682A
:101E40009B0603D42368042293432360C26B0423BC
:101E5000016C8B405360C36A002B00D0984770BD63
:101E600002238B40134218D0AB0716D523689B067C
:101E700006D423680A2293432360093A2123C254DB
:101E8000C26B0223016C8B40536000222023C2549A
:101E9000836A002BE3D09847E1E708238B40134285
:101EA000DDD02B07DBD523680E2293432360C26B62
:101EB00001231900046CA1405160836321228354E3
:101EC00000221F33C254036B002BC8D09847C6E7CB
:101ED000F0B5C64600B582B000237EE0DF080837C3
:101EE000BF003E5807251D40AD000F24AC40A6435F
:101EF0000C69AC40250035433D507EE08568644662
:101F00002540CE68BE403543856045682C00454677
:101F1000AC434D682E09012535409D402C4344605B
:101F2000C46865462C408D68BD402C43C4604C6835
:101F3000E40051D5434DAE6901242643AE61AD693D
:101F40002C400194019C9C08A51CAD003E4EAE594E
:101F500003251D40AD000F27AF40BE439027FF056E
:101F6000B84265D0394FB84264D0394FB84263D0D7
:101F7000384FB8425AD00527AF403D0035430234B0
:101F8000A400314EA551344C2568D44326002E4080
:101F90004F68FF0301D515432E002F4D2E606D684D
:101FA0002E0026404F68BF0301D515432E002A4D51
:101FB0006E60AD682E0026404F68FF0201D51543C4
:101FC0002E00254DAE60ED682C404E68B60201D55E
:101FD0002A431400204AD46001330A681400DC400C
:101FE0002CD001249C40A0462240F5D04D68022D03
:101FF00000D173E7122D00D170E706685F0003255A
:102000002C00BC40E443A44626404C682540BD401B
:10201000354305604D686E1E012E00D86EE7112D08
:1020200000D16BE7122D00D07AE767E70327A3E71B
:102030000027A1E701279FE702279DE702B004BC24
:102040009046F0BD0010024000000140000400482E
:1020500000080048000C004800040140002A01D19B
:10206000816270478161FCE770B582B0040003684B
:10207000DB0736D5C14B5A680C231340042B28D0FC
:10208000BE4B5A680C231340082B1ED06368012BEB
:102090004BD0002B50D1B94B1A68B9490A401A608D
:1020A0001A68B8490A401A606368002B5CD0FFF7D1
:1020B0007FFB0500B14B1B689B0312D4FFF778FB35
:1020C000401B6428F6D90320EAE1AC4B5B68DB03D4
:1020D000DCD5AA4B1B689B0303D56368002B00D19A
:1020E000DBE123689B0762D5A44B5B680C221A4294
:1020F0004CD0A24B5A680C231340082B42D0E36803
:10210000002B76D09D4A136801210B431360FFF723
:102110004FFB0500994B1B689B0761D4FFF748FBF9
:10212000401B0228F6D90320BAE1944A11688023A3
:102130005B020B431360B7E7052B09D08F4B1A687E
:102140008F490A401A601A688E490A401A60ABE744
:102150008A4B19688022D2020A431A6019688022C9
:1021600052020A431A609FE7FFF722FB0500834BE8
:102170001B689B03B5D5FFF71BFB401B6428F6D9F2
:1021800003208DE17D4B5B68DB03B8D47B4B1B6880
:102190009B0704D5E368012B01D0012080E177493A
:1021A0000B68F82293432269D20013430B60236823
:1021B0001B0744D5E369002B2ED0704A536A0121D6
:1021C0000B435362FFF7F4FA05006C4B5B6A9B0705
:1021D00035D4FFF7EDFA401B0228F6D903205FE162
:1021E00066490B68F82293432269D20013430B60BF
:1021F000DDE7624A136801218B431360FFF7D8FAC9
:1022000005005E4B1B689B07D1D5FFF7D1FA401B39
:102210000228F6D9032043E1584A536A01218B432F
:102220005362FFF7C5FA0500544B5B6A9B0706D55E
:10223000FFF7BEFA401B0228F6D9032030E12368DD
:102240005B0775D54D4BDB69DB002ED44B4AD1695A
:10225000802040050143D161D36903400193019B74
:102260000125494B1B68DB0521D5A368012B32D022
:10227000002B36D1414B1A6A01218A431A621A6A2D
:1022800003318A431A62A368002B40D0FFF790FA0B
:1022900006003A4B1B6A9B0748D4FFF789FA801B5C
:1022A0003A4B9842F5D90320FAE00025D9E7364A9F
:1022B000116880235B000B431360FFF779FA060077
:1022C000314B1B68DB05D0D4FFF772FA801B642802
:1022D000F6D90320E4E0294A136A01210B43136273
:1022E000D1E7052B09D0254B1A6A01218A431A62CE
:1022F0001A6A03318A431A62C5E7204B1A6A04211D
:102300000A431A621A6A03390A431A62BBE7FFF7E3
:102310004FFA0600194B1B6A9B0707D5FFF748FACF
:10232000801B1A4B9842F5D90320B9E0012D1ED02D
:102330002368DB065AD56369012B2BD0053349D0BE
:102340000E4B5A6B04210A435A635A6B03398A4372
:102350005A63FFF72DFA0500084B5B6B9B0745D5C9
:10236000FFF726FA401B0228F6D9032098E0034A1B
:10237000D36907490B40D361DAE7C0460010024039
:10238000FFFFFEFFFFFFFBFF00700040881300000F
:10239000FFFFFFEF444B5A6B04210A435A635A6B09
:1023A00003390A435A63FFF703FA05003E4B5B6BA0
:1023B0009B0706D4FFF7FCF9401B0228F6D903203F
:1023C0006EE039494B6BF8229343A269D200134364
:1023D0004B630BE0344A536B04218B435363536BC1
:1023E000F4318B43A169C9000B435363236A002B6B
:1023F00055D02D4A51680C220A40082A52D0022B8F
:1024000012D0294A136829490B401360FFF7D0F90D
:102410000400254B1B689B013DD5FFF7C9F9001B44
:102420000228F6D903203BE01F4A13681F490B40DE
:102430001360FFF7BDF905001B4B1B689B0106D518
:10244000FFF7B6F9401B0228F6D9032028E0164B07
:10245000DA6A0F218A43E16A0A43DA625A68144948
:102460000A40A16A606A01430A435A6019688022DF
:1024700052040A431A60FFF79BF904000A4B1B68D9
:102480009B0106D4FFF794F9001B0228F6D903201C
:1024900006E0002004E0002002E0012000E000202F
:1024A00002B070BD0120FBE700100240FFFFFFFEFD
:1024B000FFFFC2FF30B589B004AA154B180032C81F
:1024C00032C2110002680A606A46103313CB13C28D
:1024D0001B6813600F4B5A680C231340082B13D151
:1024E000910C0733194004A8445C0A49C96A0B409F
:1024F0006946C95CD30302D40748604305E0074836
:10250000FDF702FE604300E0044809B030BDC0465C
:10251000A04800080010024000093D0000127A00A7
:1025200070B505000C004D4B1A68012313408B4217
:102530000BD24A490B680122934323430B600B687B
:102540001A40944201D0012085E02B689B0706D5F4
:10255000434A5368F0218B43A9680B4353602B68AF
:10256000DB074CD56B68012B21D0022B25D03C4AD0
:102570001268920700D46FE039494A680320824309
:1025800013434B60FFF714F906006B68012B1AD058
:10259000022B26D0324B5B680C221A422FD0FFF759
:1025A00007F9801B2F4B9842F4D9032053E02C4AA3
:1025B00012689203E0D401204DE0294A126892018A
:1025C000DAD4012047E0264B5A680C231340042B31
:1025D00015D0FFF7EDF8801B224B9842F3D903206A
:1025E00039E01F4B5A680C231340082B07D0FFF724
:1025F000DFF8801B1B4B9842F3D903202BE0174BCD
:102600001A68012313409C420BD214490B68012223
:10261000934323430B600B681A40944201D001207E
:1026200019E02B685B0706D50D4A53680E490B402D
:10263000E9680B435360FFF73DFF094B5A681209E5
:102640000F231340094AD35CD840094B186000207F
:1026500001F0B6FD002070BD0120FCE70020024023
:102660000010024088130000FFF8FFFFC84900086F
:1026700004000020014B18687047C0460400002089
:1026800010B5FFF7F7FF044B5A68120A07231340EF
:10269000024AD35CD84010BD00100240D84900085F
:1026A00010B5072303600A4B5C6803222240426096
:1026B0005C68F022224082605B68E022D200134016
:1026C000C360044B1A68012313400B6010BDC04661
:1026D000001002400020024030B5036A01229343FB
:1026E0000362036A446882697325AA430D682A431A
:1026F0000225AB438D682B43154DA84220D0154DC4
:10270000A8421DD0144DA8421AD0144DA84217D08B
:102710000F4DA84208D00F4DA84205D00E4DA8423B
:1027200002D00E4DA84205D10D4D2C404D692C43D1
:102730008D692C43446082614A684263036230BD04
:102740000825AB43CD682B430425AB43E0E7C046E7
:10275000002C01400040014000440140004801407D
:10276000FFFCFFFF30B5036A1A4A13400362036A95
:102770004568C4697532FF3294430A681443164AA7
:1027800013408A6812021343144A904219D0134A24
:10279000904208D0124A904205D0124A904202D08C
:1027A000114A904207D1114A15404A691201154356
:1027B0008A69120115434560C4614A68C2630362B5
:1027C00030BD0B4A1340CA6812021343094A134032
:1027D000DDE7C046FFFEFFFFFFFDFFFF002C0140CD
:1027E000004001400044014000480140FFCFFFFF8E
:1027F000FFF7FFFFFFFBFFFF30B5036A134A1340EB
:102800000362036A4568C269114C22400C682402C5
:102810002243104C23408C68240323430E4CA042D7
:1028200008D00E4CA04205D00D4CA04202D00D4C59
:10283000A04204D10C4C2C404D69AD0125434560AC
:10284000C2614A680264036230BDC046FFEFFFFF09
:10285000FF8CFFFFFFDFFFFF002C01400040014025
:102860000044014000480140FFBFFFFF30B5036A4C
:10287000046A0125AC4304628469EF35AC4312015C
:1028800022430A24A34319438261016230BD000040
:1028900030B5036A1024A34303628469036A054DBB
:1028A0002C4012032243A024A3430901194382614F
:1028B000016230BDFF0FFFFF836870229343072240
:1028C000114389B21943816070470368DA680121B6
:1028D0000A43DA60026813680B43136000207047F4
:1028E0007047704770477047704710B50400036821
:1028F0001A6992070FD5DA6892070CD50322524263
:102900001A610123037703689B699B0763D0FFF774
:10291000E9FF0023237723681A69520712D5DA6882
:1029200052070FD5052252421A61022323772368EA
:102930009A69C0239B001A4253D02000FFF7D2FFB0
:102940000023237723681A69120710D5DA68120763
:102950000DD5092252421A61042323772368DB69CB
:102960009B0745D02000FFF7BDFF00232377236896
:102970001A69D20612D5DA68D2060FD51122524250
:102980001A61082323772368DA69C0239B001A425F
:1029900035D02000FFF7A6FF0023237723681A69AC
:1029A000D20702D5DA68D20730D423681A69120632
:1029B00002D5DA68120630D423681A69520602D5A5
:1029C000DA68520630D423681A69920602D5DA68AA
:1029D000920630D410BDFFF784FF2000FFF783FF7D
:1029E00097E72000FFF77DFF2000FFF77CFFA7E7B8
:1029F0002000FFF776FF2000FFF775FFB5E7200006
:102A0000FFF76FFF2000FFF76EFFC5E7022252427B
:102A10001A61200001F0A8FBC7E7812252421A6127
:102A2000200000F04CFAC7E7412252421A61200010
:102A3000FFF75AFFC7E7212252421A61200000F037
:102A40003DFAC7E70368214A90423AD08022D20576
:102A5000904236D01E4A904233D01C4A904212D047
:102A60008022D20590420ED0194A90420BD0194ACA
:102A7000904208D0184A904205D0184A904202D09D
:102A8000174A904203D1174A1340CA681343802261
:102A900093434A69134303608B68C3620B68836284
:102AA0000A4B984208D00C4B984205D00B4B9842E9
:102AB00002D00B4B984201D10B69036301234361A0
:102AC0007047702293434A681343C6E7002C0140C5
:102AD000000400400020004000400140004401404C
:102AE00000480140FFFCFFFF70B5041E14D03D23D9
:102AF000C35C002B0AD03D2502236355211D2068AD
:102B0000FFF7A0FF01236355002070BD00223C3376
:102B1000C25401F011FCEEE70120F6E770B5041E87
:102B200014D03D23C35C002B0AD03D2502236355FE
:102B3000211D2068FFF786FF01236355002070BD2B
:102B400000223C33C254FFF7CBFEEEE70120F6E74C
:102B500030B5036A102293430362036A45688469AF
:102B6000174A14400A6812021443202293438A68C9
:102B700012011343134A904219D0124A904208D0CE
:102B8000114A904205D0114A904202D0104A904218
:102B900007D1104A15404A69920015438A6992008C
:102BA0001543456084614A688263036230BD8022B8
:102BB0009343CA681201134340229343DDE7C046A2
:102BC000FF8CFFFF002C0140004001400044014009
:102BD00000480140FFF3FFFF70B504000D003C23E7
:102BE000C35C012B69D001213C23C1540131013365
:102BF000C154042A37D019D9082A4AD00C2A2AD11C
:102C000029000068FFF7F8FD2268D16980231B01C5
:102C10000B43D3612268D36929490B40D3612168F2
:102C2000CB692A6912021343CB6114E0002A12D146
:102C300029000068FFF750FD2268936908210B43C3
:102C400093612268936904398B4393612268936985
:102C500029690B43936101223D23E2540022013B89
:102C6000E254002070BD29000068FFF771FF226860
:102C7000916980231B010B4393612268936910497A
:102C80000B40936121688B692A69120213438B619F
:102C9000E1E729000068FFF765FD2268D369082194
:102CA0000B43D3612268D36904398B43D361226813
:102CB000D36929690B43D361CDE70220D2E7C0462F
:102CC000FFFBFFFF30B58468034D2C401B021A4305
:102CD00011432143816030BDFF00FFFF10B50400A8
:102CE0003C23C35C012B00D17FE001223C23C25472
:102CF00001320133C254026893683D480340936037
:102D00000B68402B5DD010D9702B43D020D8502BAE
:102D10004DD0602B36D1CA6849682068FFF7B8FDEE
:102D200060212068FFF7C8FD2CE0102B53D008D994
:102D3000202B55D0302B25D130212068FFF7BCFD4A
:102D400020E0002B1ED100212068FFF7B5FD19E01F
:102D500080225201934210D080229201934211D1DD
:102D6000CB684A6889682068FFF7ACFF22689168E1
:102D70008023DB010B43936004E022689368072102
:102D80008B43936001223D23E2540022013BE25435
:102D9000002010BDCB684A6889682068FFF792FF61
:102DA0002268936877218B430B439360EAE7CA68F4
:102DB00049682068FFF75AFD50212068FFF77CFD25
:102DC000E0E7CA6849682068FFF750FD40212068A5
:102DD000FFF772FDD6E710212068FFF76DFDD1E700
:102DE00020212068FFF768FDCCE70220D1E7C0462C
:102DF0008800FFFF10B501248C40036AA3430362DF
:102E0000036A8A401A43026210BD000010B5040034
:102E100001220068FFF7EEFF2368114A934219D0A0
:102E2000104A934218D0104A934217D00F4A934247
:102E30000ED00022002A04D0596C802212020A43CC
:102E40005A642268136801210B431360002010BDEF
:102E50000122EFE70122EDE70122EBE70122E9E79A
:102E6000002C014000400140004401400048014066
:102E7000F0B53C23C35C012B1ED03C2201258554B8
:102E80003D2402230355066873687027BB437360B3
:102E9000066873680F683B4373600668B3688027F1
:102EA000BB43B3600668B36849680B43B36005551C
:102EB000002383540020F0BD0220FCE770477047D8
:102EC000842801D0033070470020FCE710B500F0E3
:102ED000F5FB002010BDF0B585B00D004668076811
:102EE00004690823C05EFFF7EBFFA2B203AB0193B6
:102EF00000902B003900300000F0B0FB012802D117
:102F0000039805B0F0BD0020FBE710B5002800D104
:102F1000013000F00DFD002010BD10B541680068C3
:102F2000002200F050FA10BD030008334360012274
:102F300052428260C3600361002303607047002334
:102F40000361704743684B609A688A609A68516071
:102F500099600861036801330360704730B50C68FD
:102F6000631C02D00200083202E0026904E01A0089
:102F700053681D68AC42FAD253684B6099608A600E
:102F80005160086103680133036030BD0369426822
:102F9000816891608268416851605A68904205D0AA
:102FA000002202611A68501E1860704782685A60D9
:102FB000F6E70000034B1B68013301D072B6FEE751
:102FC00072B6FEE7000000200000000000000000D4
:102FD0000B4A13681868203080F30988022080F3B8
:102FE0001488BFF36F8F3FBCAE4608BC04BC62B60A
:102FF0001847C046C046C046C046C046C046C04648
:103000003C0C002010B5031F802464041C60043BAA
:103010001960043B02491960143B1A60403810BD26
:10302000B52F00087047000080225205034B1A603C
:10303000BFF34F8FBFF36F8F7047C04604ED00E0C2
:1030400072B6044A136801331360BFF34F8FBFF3A6
:103050006F8F704700000020064B1B68002B01D1CA
:1030600072B6FEE7013B034A1360002B00D162B643
:103070007047C04600000020EFF3108072B6704722
:10308000002080F31088704700000000000000005E
:10309000EFF309800E4B1A6820381060F0C04446E8
:1030A0004D4656465F46F0C008B572B600F090FC3B
:1030B00062B60CBC116808681030F0C8A046A9467A
:1030C000B246BB4680F309882038F0C81847C0468E
:1030D0003C0C002010B5FFF7CFFF040000F024FBEC
:1030E000002803D080225205024B1A602000FFF70F
:1030F000C8FF10BD04ED00E010B5064B1868064986
:10310000FDF702F80138054B18600722044B1A60DE
:1031100010BDC04604000020DD02000014E000E005
:1031200010E000E010B50A4B1968FF2212040A43B0
:103130001A601968FF2212060A431A60FFF7DCFFC3
:103140000022044B1A60FFF743FFFFF733FFC0462E
:1031500020ED00E000000020124A53071FD0D11DCF
:1031600007239943C0231B015B1A9B180A000E48D2
:10317000026000214160D318083B072083430B48BD
:10318000036059601960991A51601360084B196007
:10319000084B196080221206074B1A607047C02343
:1031A0001B01E4E728000020340C0020240000204C
:1031B000300C00202C0C0020280C002010B5124BE5
:1031C0001A68824219D359685C18A04203D140683A
:1031D00009185960180041684418A24211D10B4CDB
:1031E0002468A2420BD05268891841601A6812689C
:1031F0000260984200D0186010BD1300E0E7046040
:10320000F7E70260F5E7C046340C002024000020F8
:1032100070B5040000F080FA2E4B1B68002B0FD015
:103220002D4B1B6823424BD1002C0CD00834630774
:1032300009D007239C430834234204D072B6FEE72A
:10324000FFF78AFFECE7002C3CD0244B1B689C4224
:103250003AD8234B1D6801E02B0015006A689442A0
:1032600002D92A68002AF7D11A4A126895422DD04D
:103270001E6808362A681A606B681B1B102B08D959
:103280002819420701D072B6FEE743606C60FFF771
:1032900095FF6A6811490B689B1A0B601149096810
:1032A0008B4201D20F490B600B4B1B6813436B60C1
:1032B00000232B6000F0C6FA730709D072B6FEE750
:1032C0000026F7E70026F5E70026F3E70026F1E7FA
:1032D000300070BD24000020280C00202C0C0020A1
:1032E000340C0020300C002070B5002820D00500E0
:1032F000083D6B680F4A12681A4201D172B6FEE7A8
:10330000010008390968002901D072B6FEE70838C3
:1033100004009343436000F0FFF96368064A1168B4
:103320008C46634413602800FFF748FF00F08AFAD8
:1033300070BDC046280C00202C0C002070B5040085
:103340000D00002823D0FFF77BFE2268E36B206C82
:1033500001005943511861600021A163A260013B43
:103360004343D318E360FF234422A3540132A35400
:10337000002D11D12369002B05D02000103000F062
:103380006DFB002805D1FFF767FE012070BD72B606
:10339000FEE7FFF749FEF6E720001030FFF7C4FD17
:1033A00020002430FFF7C0FDEDE710B5029B002997
:1033B00007D01A60D863196401211800FFF7BEFF17
:1033C00010BD1B60F6E7F0B583B006000F001500D6
:1033D000002801D172B6FEE7002902D00800704330
:1033E00000E000204830FFF713FF041E07D0020062
:1033F000483200902B0039003000FFF7D6FF200044
:1034000003B0F0BD0B4B1B681B68002B0AD10133C6
:10341000002B09D1074B1B68DB68DB685A68064B39
:103420001A6070470023F3E701225242024B1A60F0
:10343000F7E7C046400C0020180D002010B504002E
:10344000006BFFF751FF2000FFF74EFF10BD00009B
:10345000F0B583B000900193089C0A9E1D4B9C46DA
:1034600062449200336B9C46624407239A431700E0
:1034700000230F2B09D8C8180578F21834321570BC
:103480000278002A01D00133F3E700224323F254EB
:10349000062C00D90624F46274640025B564301D3E
:1034A000FFF74DFD30001830FFF749FD3661072367
:1034B0001C1BB4617662F5644933F554019A009996
:1034C0003800FFF79FFD3060099B002B00D01E6085
:1034D00003B0F0BDFFFFFF3F70B5002407E0A3007D
:1034E0001B199A000E488018FFF71EFD0134062CA8
:1034F000F5D90C4D2800FFF717FD0B4C2000FFF706
:1035000013FD0A48FFF710FD0948FFF70DFD0948B4
:10351000FFF70AFD084B1D60084B1C6070BDC046DC
:10352000480C0020EC0C0020000D0020200D002095
:103530004C0D0020380D0020400C0020440C0020D1
:1035400010B50400FFF77CFD1F4A136801331360B8
:103550001E4B1B68002B2BD01D4B1B68002B07D16B
:103560001A4B1B68DB6AE26A934201D8174B1C6056
:10357000184A136801331360E26A174B1B689A42BA
:1035800001D9154B1A60211D93009B189A0013480E
:103590008018FFF7D7FCFFF75FFD0D4B1B68002B72
:1035A00005D00A4B1B68DA6AE36A9A4208D310BD59
:1035B000064B1C601368012BDAD1FFF78DFFD7E7AC
:1035C000FFF732FDF3E7C046D40C00203C0C00208E
:1035D000340D0020E40C0020E80C0020480C0020F2
:1035E00070B504000D00174B1E68174B18680430A7
:1035F000FFF7CCFC631C13D03419134B1B685C60C1
:10360000A64216D8114B18680F4B19680431FFF702
:10361000A5FC0F4B1B689C4212D20D4B1C600FE0A7
:10362000002DE9D0084B196804310A48FFF78AFCDD
:1036300006E0094B1868044B19680431FFF78EFC4B
:1036400070BDC046600D00203C0C0020400C0020E6
:10365000180D0020380D0020440C0020F0B587B074
:103660000490059114001F009000FFF7D1FD061E85
:103670001ED05420FFF7CCFD051E15D00663002D8B
:1036800018D00023039302950D9B01930C9B00938C
:103690003B00220005990498FFF7DAFE2800FFF7A7
:1036A0004FFF012007B0F0BD3000FFF71DFEE6E739
:1036B0000025E4E701204042F4E7000000B583B0B4
:1036C0000F4B01930023009380220E490E48FFF711
:1036D000C5FF012803D0431C0FD003B000BD72B654
:1036E00001225242094B1A600232094B1A60002231
:1036F000084B1A60FFF716FDEFE772B6FEE7C0460B
:10370000140D002084490008B9390008180D002064
:10371000340D0020600D0020024A1368013313604D
:103720007047C046E00C0020F8B53B4B1B68002BEF
:1037300066D13A4B1D6801351D60002D12D1384B02
:103740001B681B68002B01D072B6FEE7344A116873
:10375000344B186810601960334A136801331360E2
:10376000FFF750FE314B1B689D423DD20024304B89
:103770001B68DA6A93009B189A002E4BD358012BD2
:1037800043D9012441E00124254B1B681B68002B11
:103790002CD00023002B2BD1214B1B68DB68DE686B
:1037A00073689D4229D3371D3800FFF7EFFBB36ADA
:1037B000002B03D030001830FFF7E8FBF26A1E4BF5
:1037C0001B689A4201D91C4B1A6093009B189A00FF
:1037D000184880183900FFF7B5FBF26A144B1B68D4
:1037E000DB6A9A42CFD2CFE70024CDE70133D1E79D
:1037F000012252420D4B1A60B9E70C4A1360B6E73A
:103800000E4A13680133136000240D4B1B68002B14
:1038100000D001242000F8BDE00C0020600D002045
:10382000400C0020440C00201C0D0020180D00202E
:103830003C0C0020480C0020E80C0020DC0C002090
:10384000640D002070B5324B1B68002B01D172B69D
:10385000FEE7FFF7F5FB2E4B1A68013A1A601B686A
:10386000002B50D12B4B1B68002B04D10024FFF7F9
:10387000F3FB200070BD0024274B1B68002B23D0D6
:10388000254BDB68DC6820001830FFF77FFB251D27
:103890002800FFF77BFBE26A204B1B689A4201D9A4
:1038A0001E4B1A6093009B189A001D48801829002F
:1038B000FFF748FB1B4B1B68DB6AE26A9A42DBD3CB
:1038C0000122194B1A60D7E7002C01D0FFF79AFDAF
:1038D000164B1C68002C0AD1134B1B68002B14D00C
:1038E000FFF7A2FB0124C2E7013C002C07D0FFF741
:1038F0001BFF0028F8D001220B4B1A60F4E70022CE
:103900000A4B1A60E8E70024B1E70024AFE7C0469D
:10391000E00C0020D40C0020200D0020E80C00203A
:10392000480C00203C0C0020640D0020DC0C002022
:1039300010B5041E0ED00A4B1B68002B01D072B6C6
:10394000FEE7FFF7E9FE00212000FFF749FEFFF741
:1039500079FF00E00020002801D1FFF765FB10BDD2
:10396000E00C002010B5114B1B68002B1DD0FFF799
:10397000D3FE0F4B1C68FFF765FF002CF3D0FFF759
:103980005FFB0B4BDB68DC68201DFFF7FFFA094A81
:103990001368013B1360054A1368013B1360FFF78E
:1039A0005BFB2000FFF74AFDDDE710BDD80C0020CF
:1039B0004C0D0020D40C002010B5FFF7D3FF034BB3
:1039C0001B68012BF9D9FFF72FFBF6E7480C002005
:1039D00010B51D4B1B68002B0FD100221B4B1A602A
:1039E0001B4B1B689A00D21891001A4A8A58002A69
:1039F00009D1002B05D0013BF4E70122134B1A60DB
:103A000010BD72B6FEE713489A0041184C6864680E
:103A10004C60D21891000831401884420BD09A00B3
:103A2000D21891000B4A52185268D1680A4A1160A4
:103A3000074A1360E4E760689A00D2189100054ACB
:103A400052185060EBE7C046E00C0020640D0020E7
:103A5000E80C0020480C00203C0C002070B5C36826
:103A6000DC68002C26D0250018352800FFF78EFAD8
:103A7000154B1B68002B1FD1251D2800FFF786FA68
:103A8000E26A124B1B689A4201D9104B1A609300EC
:103A90009B189A000E4880182900FFF753FAE26A33
:103AA0000C4B1B68DB6A9A420BD901220A4B1A6045
:103AB000012070BD72B6FEE729000848FFF742FA00
:103AC000EDE70020F5E7C046E00C0020E80C002000
:103AD000480C00203C0C0020640D0020200D00202C
:103AE00000B585B00C22002101A800F04BFD2D4847
:103AF0002D4B0360002343608360C3600122026199
:103B0000082141618361C36102624362C221FF31C6
:103B10008162C36202634263FDF7AAFE00282ED1D0
:103B20000123019380235B0102930223039301A9E4
:103B30001C48FEF705F8002824D10223019301A9AF
:103B40001848FDF7FDFF00281FD10323019301A9A9
:103B50001448FDF7F5FF00281AD10423019301A9A9
:103B60001048FDF7EDFF002815D10523019301A9A9
:103B70000C48FDF7E5FF002810D105B000BD00F0AE
:103B8000FFFACDE700F0FCFAD7E700F0F9FADCE73E
:103B900000F0F6FAE1E700F0F3FAE6E700F0F0FAF9
:103BA000EBE7C046C80D00200024014030B589B0C5
:103BB00004001422002103A800F0E4FC1D4B22683D
:103BC0009A4201D009B030BD1B4B9A698025AD00E7
:103BD0002A439A619A692A400192019A5A6980217E
:103BE00089020A435A615B690B400293029B3E23A0
:103BF00003933B3B049303A99020C005FEF768F9AB
:103C00000E480F4B03600023436083608022C26034
:103C1000056180221201426120228261C361FEF7A8
:103C20009BF8002803D1054BE3635C62CAE700F010
:103C3000A7FAF8E70024014000100240840D00209C
:103C40000800024010B5052202490348FDF7D6FEE0
:103C500010BDC046700D0020C80D002010B5074BE8
:103C60009B6807485843FDF753FD0022054BFCF7BE
:103C700085FFFDF719FD00B210BDC046700D002094
:103C8000B80B00000000303F00B583B0094A51690D
:103C9000012319435161526913400193019B002292
:103CA00003210920FDF7F2FF0920FEF721F803B0F8
:103CB00000BDC0460010024000680B68C01A704783
:103CC00010B50120FFF721F9FBE70000F0B5C6466B
:103CD00000B590B0FFF7B6FF002304E09A002A4930
:103CE0006846115001330F2BF8D900270025FF2615
:103CF00000241AE099006A468958641801330F2B92
:103D0000F8D9E40847462200F92149001F4BE3187F
:103D10008B4224D8372D22D902221D4B1A701C4BFE
:103D20001B789E4200D000251E000920FFF7EDF809
:103D30000135FFF793FFAF23DB009842E3DD7B1CE7
:103D400098460F233B409B006A469850114B042233
:103D50001021684600F054FC08230024CFE70E4BE6
:103D60009C466244C72A05D8372D03D90122084B47
:103D70001A70D4E7094B9C42D1DD372DCFD90022F0
:103D8000034B1A70CBE7C046B80B0000BFF9FFFF2A
:103D9000680D0020B93C000868F7FFFF910900009A
:103DA00070B50121022000F06DF9002000F056F9F5
:103DB00000220023002000F067FB002600250024DD
:103DC00026E0022424E0012422E06B425D41EDB2B2
:103DD0002900002000F056F928E00021012000F021
:103DE00051F9002000F03AF90121032000F04AF9CE
:103DF0000021042000F046F90021052000F042F9DE
:103E00000021062000F03EF9464B1B78012B2DD0F7
:103E10001420FFF77AF8444B1888013080B21880DC
:103E20000A21FCF7F7F989B20029CED0012C24D061
:103E3000002CD2D0022C44D0032CE9D10021012047
:103E400000F020F9002000F009F90021032000F023
:103E500019F90021042000F015F90021052000F0D7
:103E600011F90121062000F00DF9D1E700222F4BB6
:103E7000012000F009FB0124CAE7012000F0EEF860
:103E80000121012000F0FEF80121032000F0FAF8E2
:103E90000121042000F0F6F80021052000F0F2F8DE
:103EA0000021062000F0EEF81E4B1B78022B88D074
:103EB000002BADD100220023002000F0E5FA002401
:103EC000A6E7194B18881421FCF7A4F989B2002938
:103ED00020D0012000F0C2F80121032000F0D2F828
:103EE0000121042000F0CEF80121052000F0CAF8DD
:103EF0000021062000F0C6F80A4B1B78012B00D1E8
:103F000061E7002B84D100220023002000F0BCFADE
:103F100000247DE773425E41F6B23100012000F0DB
:103F2000B1F8D6E7680D00206A0D00200000384087
:103F300070B592B010A8184C2500030006CD06C33A
:103F40000021FEF7EAFF154B18600BA803002A00BA
:103F500062CA62C322CA22C30021FEF7BCFF104B13
:103F6000186006A8020023001C3362CB62C222CB79
:103F700022C20021FEF7AFFF0A4B186001A8020021
:103F800030342ACC2AC20ACC0AC20021FEF7A3FF91
:103F9000054B186012B070BDC0480008200E00200C
:103FA000140E0020180E00201C0E0020F0B589B061
:103FB0001422002103A800F0E5FA234B5969802060
:103FC0008002014359615A6902400092009A59697E
:103FD0008020C002014359615A6902400192019A4E
:103FE0005A69802109030A435A615B690B400293B5
:103FF000029B164F002239001548FEF72FF8C02605
:10400000B600002231001348FEF728F80125039579
:10401000114B04930024059403A99020C005FDF7DB
:1040200057FF039704950594069403A90848FDF7E4
:104030004FFF039604950594069403A90548FDF7E0
:1040400047FF09B0F0BDC0460010024037800000B5
:1040500000040048000800480000121010B50028B5
:1040600006D10022802109020548FDF7F7FF10BDA7
:104070000122802109020248FDF7F0FFF7E7C04660
:104080000004004810B54A1E9141CAB2062808D85B
:104090008000144B1B589F46802149001248FDF7B1
:1040A000DDFF10BD802189000F48FDF7D7FFF8E73D
:1040B00001210E48FDF7D2FFF3E702210B48FDF77F
:1040C000CDFFEEE704210948FDF7C8FFE9E710211D
:1040D0000648FDF7C3FFE4E720210448FDF7BEFFD3
:1040E000DFE7C046AC49000800080048000400486B
:1040F00010B590B03022002104A800F043FA10243B
:1041000010220021684600F03DFA12230493113B6F
:104110000793099308940A940E3C0C94A0239B03E4
:104120000E9304A8FDF7A0FF07230093019400233A
:104130000293039301216846FEF7F2F910B010BD17
:1041400010B5FDF71DFBFFF7D3FFFFF72FFFFFF7BC
:104150009BFDFFF7C5FC00F0B1F800F039F9FFF75F
:10416000E7FEFEF7B3FEFEE710B50268034B9A4286
:1041700000D010BDFDF714FBFBE7C046002C01404A
:104180007047000000B583B00C4B996901221143C0
:10419000996199690A400092009ADA69802149057B
:1041A0000A43DA61DB690B400193019B0022032182
:1041B00002204042FDF76AFD03B000BD001002403E
:1041C00000B587B0010000220D20FDF75FFD0D2036
:1041D000FDF78EFD134A9169802000010143916132
:1041E000936903400093009B01A902A8FEF758FAC7
:1041F000FEF746FA0C49FBF787FF431E0B480C4AB3
:1042000002600C4AC2604360002303618360FEF7D2
:104210006BFC002802D0012007B000BD0348FEF768
:1042200054FBF9E70010024040420F00240E00202A
:10423000002C0140E70300007047FEE710B502487C
:10424000FDF7F1FD10BDC046840D002010B50248F9
:10425000FEF74BFB10BDC046240E0020114B1A6820
:1042600001210A431A605A680F4802405A601A68CE
:104270000E4802401A601A680D4802401A605A68D7
:104280000C4802405A60DA6A0F208243DA621A6BE5
:10429000094802401A635A6B8A435A6300229A60A3
:1042A0007047C046001002400CB8FFF8FFFFF6FE52
:1042B000FFFFFBFFFFFFC0FFACFEFFFF00B587B0B5
:1042C0001022002102A800F05DF9082200216846B2
:1042D00000F058F91548164B0360002343608360D3
:1042E000144AC26003618361FEF7FEFB002813D10C
:1042F00080235B01029302A90C48FEF7EFFC002823
:104300000DD100230093019369460848FEF7B0FDE4
:10431000002807D107B000BDFFF732FFE8E7FFF73D
:104320002FFFEEE7FFF72CFFF4E7C046640E0020F6
:104330000004004080BB000082B003688022D205E8
:10434000934204D00C4A93420BD002B070470B4A00
:10435000D16901231943D161D26913400093009BB5
:10436000F3E7064AD16902231943D161D2691340A8
:104370000193019BE9E7C0460004004000100240A1
:1043800010B586B004001422002101A800F0FAF84C
:1043900022688023DB059A4201D006B010BD0B4A8B
:1043A00051698020800201435161536903400093A9
:1043B000009B80231B02019302230293059301A912
:1043C0009020C005FDF784FDE7E7C04600100240DD
:1043D00000B58FB0102200210AA800F0D3F80822FF
:1043E000002108A800F0CEF81C22002101A800F04E
:1043F000C9F823488023DB05036000234360836002
:10440000204AC26003618361FEF76EFB002828D159
:1044100080235B010A930AA91948FEF75FFC002874
:1044200022D11748FEF77AFB002820D100230893F9
:10443000099308A91248FEF71BFD00281AD1602332
:1044400001930023029303930593002201A90C48D2
:10445000FEF7C2FB002810D10948FFF791FF0FB00B
:1044600000BDFFF78DFED3E7FFF78AFED9E7FFF720
:1044700087FEDBE7FFF784FEE1E7FFF781FEEBE76E
:10448000A40E002080BB000030B589B014001D00D0
:1044900000281ED00022104B20002900FCF76EFBE4
:1044A00000220E4BFBF736FFFBF716FF80B26023AE
:1044B00001930290002303930593094C002201A964
:1044C0002000FEF789FB00212000FEF79FFC09B0C9
:1044D00030BD0448EBE7C0460070E74000004E40A6
:1044E000A40E002080BB00000D4885460D480E49F3
:1044F0000E4A002302E0D458C4500433C4188C423E
:10450000F9D30B4A0B4C002301E013600432A242A2
:10451000FBD3FFF7A3FE00F011F8FFF711FEFEE753
:10452000002000200000002008000020E8490008CA
:1045300008000020E40E0020FEE7000070B5002611
:104540000C4D0D4C641BA410A64209D1002600F0AE
:104550009BF90A4D0A4C641BA410A64205D170BDFC
:10456000B300EB5898470136EEE7B300EB58984795
:104570000136F2E7E0490008E0490008E049000898
:10458000E449000803008218934200D17047197073
:104590000133F9E730B50024012B08DC92080368E9
:1045A0000C68013A10C008C1002AF8DC30BD035D78
:1045B0000D5D05550B550134131B002BF7DCF5E79A
:1045C000F8B50C00150007001E00984729000028C8
:1045D0000BDA2000B047002805DB29003800B0477F
:1045E00000280BDB3C002000F8BD2000B04700286D
:1045F000F9DC29003800B0470028F3DB2C00F2E793
:10460000F0B5170089B000900291039302230322B2
:104610000193009B134206D1174204D13B1F1A009D
:10462000531E9A410192029B062B27D8009B009AA9
:10463000DE19029B7B43D3180293029B9E4200D358
:104640001FE1340015E0019B3A0029002000FFF72C
:10465000A1FF0DE0E51B21002800039B98470028DF
:104660000ADD019B002BEED123682A6822602B60B3
:104670002C00009BA342EDD3F619DEE7029B5C08F9
:104680007C43009B1C19029B072B27D05E1E7E4398
:10469000009B9E190493029B282B18D9DD087D43AB
:1046A000009B009859194A19039BFFF789FF62196B
:1046B00021000490039B601BFFF782FF0400680049
:1046C000301A32004119039BFFF77AFF06002100E0
:1046D000039B32000498FFF773FF0400019B002B3B
:1046E00030D1009B21681B68009A11602360009BF9
:1046F000DE19029B04965C1E7C43009B1C19F31977
:104700000793002305940693079BDD1BAC4200D260
:10471000AEE000992800039B9847002832DC0DD1B9
:10472000019B002B15D1049B29681B68049A11601A
:104730002B60049BDB19049301230693079BDB1971
:104740000793E1E7019B3A0021000098FFF722FF61
:10475000CDE7019B3A0029000498FFF71BFFE8E72B
:1047600000280ED1019B002B1ED1059A23681268E8
:1047700022600692059A1360059BDB1B05930123BB
:104780000693E41BAC4273D300992000039B984727
:104790000028E5DA019B002B0DD0019B3A00210097
:1047A0002800FFF7F7FE0AE0019B3A000599200078
:1047B000FFF7F0FEE0E72B6822682A602360E41B25
:1047C000BAE7019B3A0029002000FFF7E3FE0DE065
:1047D000E51B21002800039B984700280ADD019B68
:1047E000002BEED123682A6822602B602C00009BEE
:1047F000A342EDD3F619029B9E4242D23400F6E763
:10480000009AD3180293049BEE1A9A1AB24200DD62
:104810003200002A04D0A91A019B0098FFF7BAFEC3
:10482000059B059A1C1B029B9A1AD21BA24200D917
:104830002200002A05D0029B2800991A019BFFF74D
:10484000A9FEB74209D239003000FBF75DFC039B9B
:1048500001003A000098FFF7D3FEA74211D2029B55
:1048600039001B1B20000093FBF74EFC0290CDE6A5
:10487000029B069A7B43002AC2D1009AD318029366
:10488000B9E709B0F0BD0000F8B5C046F8BC08BCF7
:104890009E467047F8B5C046F8BC08BC9E467047B7
:1048A00002030405060708090A0B0C0D0E0F101071
:1048B0000102030405060708090A0B0C0D0E0F1070
:1048C0001000000002000000A0490008C13C0008E0
:1048D000000000000000000080000000984900086F
:1048E000CD3C000800000000000000008000000037
:1048F0008C490008A13D0008FDFF000000000000F9
:10490000800000000C050008EE040008A804000860
:10491000C6030008A8040008E0040008A804000872
:10492000C6030008EE040008EE040008E0040008D6
:10493000C6030008BE030008BE030008BE0300084B
:10494000240700086C0D00082C0C00082C0C000833
:10495000280C0008440D0008440D0008360D00081E
:10496000280C0008440D0008360D0008440D00080E
:10497000280C00084C0D00084C0D00084C0D0008D8
:10498000500F000849444C45000000004D61696E1D
:104990005461736B0000000050696C6F740000007C
:1049A00064656661756C745461736B0098400008AF
:1049B000A4400008B0400008BA400008C440000805
:1049C000CE400008D84000080000000000000000B1
:1049D00001020304060708090000000001020304A5
:0449E000E9000008E2
:0449E400C100000806
:0849E800AAAAAAAA00127A0093
:04000005080044E9C2
:00000001FF
