:020000040800F2
:1000000000200020414C00082D4A00082F4A00081B
:1000100000000000000000000000000000000000E0
:10002000000000000000000000000000553600083D
:100030000000000000000000C1360008053700087D
:10004000914C0008914C0008914C0008914C00081C
:10005000914C0008914C0008914C0008914C00080C
:10006000914C0008314A0008914C0008914C00085E
:10007000914C0008414A0008914C0008914C00083E
:10008000914C0008914C000800000000914C0008C1
:10009000914C0008914C0008914C0008914C0008CC
:1000A000914C0008914C0008914C0008914C0008BC
:1000B000914C000800000000914C00080000000076
:1000C00010B5064C2378002B07D1054B002B02D02E
:1000D000044800E000BF0123237010BD8000002011
:1000E00000000000D0530008044B10B5002B03D0D3
:1000F0000349044800E000BF10BDC04600000000F6
:1001000084000020D0530008002243088B4274D39F
:1001100003098B425FD3030A8B4244D3030B8B4208
:1001200028D3030C8B420DD3FF22090212BA030C11
:100130008B4202D31212090265D0030B8B4219D3F2
:1001400000E0090AC30B8B4201D3CB03C01A524112
:10015000830B8B4201D38B03C01A5241430B8B425A
:1001600001D34B03C01A5241030B8B4201D30B0343
:10017000C01A5241C30A8B4201D3CB02C01A52416A
:10018000830A8B4201D38B02C01A5241430A8B422D
:1001900001D34B02C01A5241030A8B4201D30B0216
:1001A000C01A5241CDD2C3098B4201D3CB01C01A30
:1001B000524183098B4201D38B01C01A524143093A
:1001C0008B4201D34B01C01A524103098B4201D328
:1001D0000B01C01A5241C3088B4201D3CB00C01A95
:1001E000524183088B4201D38B00C01A524143080D
:1001F0008B4201D34B00C01A5241411A00D2014632
:10020000524110467047FFE701B5002000F006F8A4
:1002100002BDC0460029F7D076E770477047C04658
:100220008446101C62468C46191C634600E0C0469A
:100230001FB500F051FF002801D40021C8421FBDA6
:1002400010B500F0ABFE4042013010BD10B500F01B
:1002500043FF002801DB002010BD012010BDC04677
:1002600010B500F039FF002801DD002010BD01208D
:1002700010BDC04610B500F0CBFE002801DC002008
:1002800010BD012010BDC04610B500F0C1FE002811
:1002900001DA002010BD012010BDC0461C21012341
:1002A0001B04984201D3000C10391B0A984201D359
:1002B000000A08391B09984201D30009043902A237
:1002C000105C40187047C04604030202010101019E
:1002D000000000000000000070B500220C4B04007C
:1002E0000D00FFF7D1FF002804D12000290001F004
:1002F000EBFC70BD064B00222000290001F0CEF976
:1003000001F0E2FC80231B069C466044F1E7C046F6
:100310000000E041F8B54546DE4657464E460C0320
:10032000E0B54E00C90F88460D00610A440F0C432A
:10033000C70019035800DB0F9B464B0A510F0B43B4
:10034000760D400D1900D200D84500D1AEE0351A27
:10035000002D00DCF6E000280FD1134300D1DBE0D4
:100360006B1E002B00D037E1BA1A9742BF41641AC6
:100370007F42E41B0126170024E0C64B9E424DD06D
:1003800080231B041943382D00DD07E11F2D00DDFC
:1003900038E12020431B9A460B0050468340994683
:1003A00013004846EB401843030050468240501E5D
:1003B0008241E9401A43BA1A611A9742A4411700D0
:1003C00064420C1B230262D56402650A002D00D131
:1003D000DFE02800FFF762FF0300083B1F2B00DD72
:1003E000D2E020223C00D21A9D40D4409F402543B9
:1003F0009E4200DDC4E09E1B731C1F2B00DDF1E05C
:10040000202238002900D21AD840914097402C0071
:100410000143781E8741DC4000260F437B0709D04B
:100420000F233B40042B05D03B1DBB42BF417F4205
:10043000E4191F0023022CD5964B01369E4200D1B1
:100440009AE04546944BFF081C406007760564021D
:100450000743240B760D00212403230B0C0D8F4A38
:1004600024051C431440330523435B00ED075B0860
:100470002B43380019003CBC90469946A246AB4637
:10048000F8BD6446044300D111E2040067467B07CF
:10049000C6D145466007FF080743E4087D4B9E42EE
:1004A00030D024037605240B760DD4E7331A9A4610
:1004B000002B78DD002831D076488642AED08020EF
:1004C000000401435346382B00DCE9E00A43511E87
:1004D0008A410021D219BA42BF4109197C42170052
:1004E0000C192302D3D56B4B01369E4200D13AE161
:1004F0000120694B1C407B0807401F43E00707436E
:1005000064088BE723003B4300D1CBE18022120338
:1005100014432403240B9EE72E007FE708001043BA
:1005200000D1B4E0581E002800D0DEE0BA18BA426C
:100530009B4164185B42E418170001262302A6D5EC
:100540000226D5E7002D6ED1701C4005400D012814
:1005500000DCF9E0B81A844687428041E51A40423F
:100560002D1A280200D489E0D71BBA4292411C1BE5
:100570005242A51AD84629E74546002400276AE7D3
:10058000454CF61A2C4049E73D00283885400027A5
:100590002EE73800FFF782FE20301DE70A43511E88
:1005A0008A41002107E7002B00D0F3E0701C4305CF
:1005B0005B0D012B00DCADE0364B984200D1D1E061
:1005C000BA18BA42BF4164187F42E419E7075208DB
:1005D00017436408060021E72E48854200D193E0C6
:1005E0001D00D0E629001F3EF140202B00D18DE0F8
:1005F0004022D31A9D402F437D1EAF4100240F435C
:10060000002644E72B000800203BD8400300202DA3
:1006100000D17DE04020451BA9400A43511E8A417C
:1006200000211A43C7E6002E50D01A4EB04257D0D0
:1006300080266B429946360434434B46382B00DD06
:10064000D6E01F2B00DD35E12026F51A2600AE404E
:10065000B2463E00DE40AC46350056462E43654667
:10066000AF407D1EAF41DC403743D71BBA429241B9
:100670000C1B5242A41A0600D846A3E664466746FD
:100680002C4300D0A2E600250026002706E71E0026
:10069000C4E6C046FF070000FFFF7FFFFFFF0F809B
:1006A0001F2B63DC2020C31A080098409C46834619
:1006B00053461000D84003005846184363469A40FA
:1006C000531E9A4153460243D94003E726003E4356
:1006D00006D0EB439946002BC7D0944EB042ACD124
:1006E0000C0017000600D84698E6904B9A450BD0B0
:1006F0008246E7E6002800D09EE01800104300D1B3
:10070000E9E01C001700D846884E87E6002572E70E
:10071000002182E723003B43002E00D0ABE0002BFA
:1007200000D1E7E00B00134300D177E6BA18BA42D4
:10073000BF4164187F42E419230200D4F2E07C4BED
:1007400017001C40060069E620003843002ED1D176
:1007500000285BD11C00144300D1A8E01C00170046
:10076000D8465BE606000024002797E650460B00BB
:100770002038C34099465346202B00D195E04023B2
:1007800050461B1A99400A43511E8A414B4600218C
:100790001A439FE6002E30D126003E4367D0DB434C
:1007A0009A46002B1CD0614EB04260D05346382B85
:1007B00000DD96E01F2B00DD9FE02026F31A2600C7
:1007C0009E409C46B34653463E00DE4033005E46A4
:1007D0001E4363469F407B1E9F415346DC40374388
:1007E000BF189742924164185242A418060078E656
:1007F00027437C1EA741002437E74C4EB04236D039
:1008000080265B4236049A463443CFE718001043F3
:1008100000D103E6B81A84466745AD41E01A6D423F
:10082000401B050200D42CE6D71BBA4292411C1B88
:100830005242A41AD846F1E51800104300D163E7EC
:10084000F808670707438020E4080003044208D043
:10085000DD08054205D1D208590711430F002C00CD
:10086000D8467B0FE4001C43FF00304ED6E50C0059
:1008700017000600D2E5002B38D00B00134300D13F
:1008800042E7F808670707438020E40800030442B2
:10089000E7D0CB080342E4D1D208490711430F0047
:1008A0001C00DEE700270024D5E500216BE70025CA
:1008B0000027F3E54E462500203EF5404B462E002E
:1008C000202B2DD04025ED1AAC4027437C1EA7419C
:1008D00000243743C9E6802400252403134E002753
:1008E000DCE527437C1EA741002479E70C001700B4
:1008F0000E4E93E50C00170090E556462300203E6F
:10090000F34099465346202B0ED0402356469B1B5E
:100910009C4027437C1EA7414B4600241F435FE7B2
:100920000024D2E71700B2E50024F2E7FF07000039
:10093000FFFF7FFFF0B557464546DE464E46E0B521
:100940004C000E0387B0834692461D008046360B4E
:10095000640DCF0F002C4FD06F4B9C4235D08023BD
:10096000420F1B04F600134333439946C3009846D5
:100970006A4B00269C460023644403932B031B0B05
:100980009B466B00ED0F50465B0D01955ED0624AB1
:10099000934253D05A46D1008022400F12040243A2
:1009A0000A4393465246D1005C4A9446002263446F
:1009B0003800684084460290E41A16430F2E00D98E
:1009C000B4E0574BB6009B599F460300334399460A
:1009D0006CD100239846023308260393CEE7CB461A
:1009E0004146039A0197022A65D1019B4A4C9C46D5
:1009F0000023002298466BE00300334399464ED013
:100A0000002E00D1BCE13000FFF748FC03000B3B97
:100A10001C2B00DDACE11D22D31A5A460100DA403E
:100A200008398E401300334399465B468B40984605
:100A300000233C4C0026241A03939FE751465A4654
:100A4000114329D1002293460232B1E759460143AE
:100A50001ED05B46002B00D19EE15846FFF71EFCDE
:100A600003000B3B1C2B00DD8FE102005946083AC6
:100A700091408B461D21CB1A5146D9400B00594657
:100A80000B4351469B469140264B00221B1A8FE791
:100A9000002301229B468BE75146032288E700236F
:100AA0009846013304260024039367E70323B146E5
:100AB00003930C2662E7032A00D15CE2019B012A22
:100AC00000D0E4E113409C46002300240022984615
:100AD00000211203130B0A0D12051A432305124CB1
:100AE00040462240134362465B00D2075B08134333
:100AF000190007B03CBC90469946A246AB46F0BDF3
:100B0000002380229C4612039846034CE0E7002312
:100B1000014C00229846DBE7FF07000001FCFFFFC5
:100B2000445400080DFCFFFFFFFF0F80D94500D99A
:100B300039E100D134E1002346464D469A46013C56
:100B40005B460A0E1B021A430B02170C0393130495
:100B50001B0C3900280090460193FFF7D5FA0200DC
:100B6000019B83465A43280039009146FFF752FB08
:100B7000350C09040D43A9450DD95B464544013B9D
:100B8000A84500D93AE1A94500D837E102235B42E4
:100B90009C464544E3444B46EB1A39001800049345
:100BA000FFF7B2FA019B05004343390004989946C8
:100BB000FFF730FB330409041B0C0B43994509D99B
:100BC00043446A1E984500D91AE1994500D817E1B7
:100BD000023D43444A469B1A5A4612042A4303994B
:100BE0009346100C0A0C914609045A46090C4E46CD
:100BF0000D001204120C454305915143724370439A
:100C000052190E0CB218954203D980256D02AC46DC
:100C10006044150C09041204090C28185218834268
:100C200000D2CEE000D1C8E01D1A53469E1AB2454C
:100C300092415242AB1A9A46984500D117E13900C9
:100C40001800FFF761FA019B050043433900504645
:100C50000493FFF7DFFA04980B04310C1943884220
:100C600009D941446B1E884500D907E1884200D864
:100C700004E1023D4144049BCB1A1800390004935F
:100C8000FFF742FA019B82464343390004980193DF
:100C9000FFF7C0FA01980B043104090C194388428C
:100CA0000DD953464144013B884500D9E8E08842CC
:100CB00000D8E5E002235B429C464144E244019BAC
:100CC0002D04CE1A51462943059D4F462A000B0498
:100CD000080C1B0C5A4345437B4378435B19170CA4
:100CE000FB189D4203D980256D02AC4660441D0C63
:100CF00012041B04120C28189B18864200D293E0A1
:100D000000D18EE001231943A04BE318002B00DC37
:100D100099E04A0700D09EE05A46D20106D55A46CD
:100D20009B4B1A4080239346DB00E318994A934279
:100D300068DD0123029A984C1A4000239446984695
:100D40000022C5E680224B46120313420AD05B46BE
:100D5000134206D11A431203120BAC4688468E4C3E
:100D6000B6E64B461A431203120BBC468A4CAFE65A
:100D700003005A46283B9A4000239146984657E67E
:100D80005846FFF78BFA203040E603005246283BD6
:100D90009A400021934677E6FFF780FA20305FE61D
:100DA000884500D2C7E64B46DE075D0843465B0830
:100DB0001E434346DB079A46C2E60025924500D310
:100DC00033E7039E5946B446E244B245AD416D4215
:100DD0004544EB180139984507D2984200D97FE085
:100DE00000D1BCE01D1A8B461FE79845FAD1039D40
:100DF0005545F2D943468B461D1A16E79B46CAE66F
:100E00001500E7E65A46C90852070A435B059046B3
:100E10005C0D5A460123029952021940120B8C466E
:100E200056E6002B00D16FE746444A1EB04529D94B
:100E30001100864200D065E7039A934200D061E733
:100E400062E7012149420120C21A382A21DD029BB2
:100E500003409C4638E60F220A40042A00D15BE793
:100E60000A00111D914292415242934454E7474B6C
:100E7000E318002BE5DD01225242F2E71D00FAE6FD
:100E80009A461CE7B04239D86ED011003AE7029377
:100E90003AE71F2A3CDC20239B1A0C005846994055
:100EA00098404B1E99415B46D440D34020430843B1
:100EB0001A00430709D00F230340042B05D001007B
:100EC000081D88429B415B42D21813023AD5012388
:100ED000029A01241A400023944698460022F7E51E
:100EE000022149428C46039DE344AC46E244AA45B4
:100EF000AD416D424544ED182D1A96E68A1E0399C0
:100F00004D008D42894149424144761803958FE74F
:100F10001F204042C31A5846D8400300202A28D038
:100F200040205D46821A954029434A1E914119434B
:100F3000072300220B4009D00F2300220B4008009A
:100F4000042BBDD1010053075202120BC9081943EB
:100F5000012388460299002419408C46B8E5524581
:100F6000BED88B46002560E6039D9D42C6D3110086
:100F700062E70025D8E780225B4612031A43019BF3
:100F80001203120B9C468846034CA1E5FF030000A8
:100F9000FFFFFFFEFE070000FF070000F0B54F4611
:100FA0004646D6465C00C0B51F03DB0F9A46174B7A
:100FB0000E034D0084468046360B6D0DC90F9146D9
:100FC0003F0B640D01209D4208D09C4201D0A542F8
:100FD0000BD01CBC90469946A246F0BD63463343F5
:100FE000F7D1AC42F5D13A43F3D10120BE42F0D162
:100FF000C845EED1514507D0002DEAD163461E43C6
:101000003000461EB041E4E70020E2E7FF070000A1
:10101000F0B54546DE4657464E46E0B51F033D0B4C
:101020002C4F0E034C00AB465D008446360B640D1E
:10103000C90F90466D0DDB0FBC422AD0254FBD4233
:101040002DD0002C0FD130430700814678427841E3
:10105000C0B2002D17D15F463A4314D14B46002051
:10106000002B0AD006E0002D02D15846024301D0E1
:10107000994218D04842012108433CBC9046994609
:10108000A246AB46F0BD0028F2D00120013B184338
:10109000F3E737000743D1D002204042EDE75F4637
:1010A0001743CED0F8E7AC42E4DC03DA481E012156
:1010B0000843E2E75E45DDD806D000205E45DCD27D
:1010C0000123481E1843D8E7C445D3D80020C4459F
:1010D000F6D3D2E7FF070000F0B54E464546DE46A0
:1010E00057465C00E0B51F03DB0F99462A4B0E0301
:1010F0004D00C90F8446360B6D0D8B4690463F0B55
:10110000640D9D4220D0244B9C4222D0002D12D150
:10111000304343424341DBB2002C1FD0002B0CD0A4
:101120004B460120013B034318003CBC90469946C6
:10113000A246AB46F0BD002C16D0CB4517D05B467F
:10114000594201230B43EFE7310002230143EBD166
:10115000D9E7390002231143E6D1D7E73A43DDD17D
:1011600000230028E0D0EAE73A43E6D1E7E7A542CA
:10117000E5DC05DBBE42E2D807D00023BE42D3D275
:101180005946012301390B43CEE7C445D7D8002384
:10119000C445F5D3C8E7C046FF070000F0B5574681
:1011A0004546DE464E46E0B50C0398464E00230BFE
:1011B00087B0070092469B46760DCD0F002E6BD070
:1011C0006D4B9E4235D080245B46420F2404DB00E9
:1011D00014431C43C3009946684BA3469C46002316
:1011E00000276644029343461C035A00DB0F504617
:1011F000240B520D984600D176E05F4B9A426DD099
:101200008023410F1B040B435C49E4008C461C43C4
:10121000C300002062444146B6186940721C019127
:10122000944607430F2F00D9B0E0554ABF00D2596A
:1012300097465B460343994600D087E000239B46D0
:10124000023308270293CEE742460192022867D074
:10125000032800D10EE2012800D062E1002300241F
:101260000022994601990140CDB2002112030B0DD5
:10127000120B1B051343434A240513401C4364000F
:10128000ED0764082C434846210007B03CBC90465B
:101290009946A246AB46F0BD034399464FD05B4604
:1012A000002B00D189E15846FEF7F8FF03000B3B05
:1012B0001C2B00DD7AE11D22D31A3A0001005C46A6
:1012C000DA4008398C4013008F4023439B46B946CF
:1012D00000232D4E0027361A029384E753462343FA
:1012E0002AD10024022096E75346234320D0002C25
:1012F00000D157E12000FEF7D1FF03000B3B1C2B70
:1013000000DD49E11D21CB1A51460200D940534668
:10131000083A944093400C431B4A121A00207AE783
:101320000125019B144C1D400023002299469CE797
:101330000024002201206EE7534603206BE70023C0
:101340009B4601330427002602934CE70323814682
:101350000C27029347E780220023002512039946B9
:10136000054C82E75C464B4602986FE75C464B466D
:10137000019502986AE7C046FF07000001FCFFFFE5
:1013800084540008FFFF0F800DFCFFFF4A464946CA
:10139000170C1A0C1B041B0C08041900000C414309
:1013A0001500884619007D43794303958946290035
:1013B000150045434D44029545462D0CAA46029D15
:1013C0005544A94506D98A46802149028946CA441E
:1013D00051460391290C0491414609042D04090C3E
:1013E00088462900250C24044144240C0591210041
:1013F00041438846210079438A4668434146504428
:101400008146080C48446F43824503D98021490234
:1014100089464F44010C89463900494402914146AE
:101420000F0404993F0C88460004C01980444146CB
:10143000049159460F0C0904090C884659438A4601
:1014400039005143894641464A435146090C8B466F
:101450007B43D2185A44934203D980235B029B46B4
:10146000D94451460904090C8A46414661437C43EC
:10147000130C12044B445244A1468A463C00414698
:101480006C434D4351464D440F0C7D19A94503D97A
:101490008021490288464444049F0399B846414448
:1014A0008B468345804141428846514608042F04BB
:1014B000000C3F18584602991018894690429241F4
:1014C0004F44BA46524299469346C244D144CB4413
:1014D0008F42BF41C245894199459B419345924105
:1014E0007F4249422D0C52420F435B4213437F1906
:1014F000FF185B463C19DB0D059A64021C4343024E
:1015000013435D1EAB415A46C00D034352021343C1
:10151000E20156D501205A0803401343E207134362
:1015200064085A48604400284DDD5A0709D00F224C
:101530001A40042A05D01A1D9A429B415B42E418C6
:101540001300E20104D58020514AC00014406044D9
:10155000504A904200DDE3E60125DB0862071A43AA
:101560006402019B9146220B4405640D1D407CE6FC
:10157000802259461203114208D0144206D1224358
:101580001203120B45469946434C6EE65B461A43DE
:101590001203120B404C68E603005446283B9C4063
:1015A0000023B9E6FEF77AFE2030A6E60300283BCA
:1015B0009F400023BB4699468AE6FEF76FFE203027
:1015C00074E6B446ADE701252A1A382A06DD019BE8
:1015D00000241D4000230022994646E61F2A21DCF4
:1015E00020252000AD1A1E00AB40A840D6405D1E4D
:1015F000AB4130431843D440430709D00F23034085
:10160000042B05D00300181D98429B415B42E4184F
:10161000230221D50125019B01241D400023002226
:10162000994622E61F2521006D42281AC140080074
:10163000202A1DD05F35AA1A944023435C1EA34183
:10164000072503431D400022002D09D00F2200244E
:101650001A401800042AD6D1030065076402220B41
:10166000DB082B4301259946019B00241D40FCE526
:101670000024E2E78022012512032243019912038C
:10168000120B0D409946044CEFE5C046FF030000E5
:10169000FFFFFFFEFE070000FF070000F0B5464613
:1016A000D6464F460C03C0B5CD0F4E00610A440F1D
:1016B0000C43C1005800400D84468A460F001903B0
:1016C000500F490A0143C648760DA846DB0FD200E9
:1016D000844500D1D8E001204340AB4200D1A6E0D0
:1016E0006046351A002D00DC05E1002810D10B0002
:1016F000134300D1D7E06B1E002B00D04BE15346C3
:101700009F1ABA458041641A4042241A01261EE0FD
:10171000B34B9E4248D080231B041943382D00DD73
:1017200019E11F2D00DD4CE120230F005B1B100091
:101730009A409F40E840531E9A41E94007431743AF
:101740005346DF1B611ABA45A44164420C1B2302B5
:1017500000D4C5E06402650A002D00D1F6E028003F
:10176000FEF79CFD0300083B1F2B00DDE9E0202273
:101770003C00D21A9D40D4409F4025439E4200DD4C
:10178000DBE09E1B731C1F2B00DD0AE120223800CA
:10179000D21A290097402C009140D8407A1E9741D8
:1017A000DC40002601430F437B0709D00F233B4059
:1017B000042B05D03B1DBB42BF417F42E4191F00F3
:1017C000230225D5864B01369E4200D1AFE0854BE2
:1017D00001251C4043466207FF0864027605174353
:1017E000240B760D1D4000212403230B0C0D7E4A93
:1017F00024051C431440330523435B00ED075B08BD
:101800002B43380019001CBC90469946A246F0BDF7
:10181000012543466207FF081743E4081D40704B4B
:101820009E4236D024037605240B760DDBE7634613
:10183000F31A002B00DC94E06046002835D068489D
:101840008642B1D080273F043943382B00DCFDE0CD
:101850000A43170000217A1E97415744574580419B
:10186000091944420C1923023AD55D4B01369E42B8
:1018700000D14BE101225B4B1C407B0817401F430A
:10188000E207174364088FE70800104300D024E7FD
:1018900021E723003B4300D1B9E180221203144326
:1018A0002403240B9FE72E007EE70800104300D19D
:1018B000CAE0581E8446002800D0E7E05244524552
:1018C000804164184042241817000126230207D5DE
:1018D0000226CFE764462C4300D1B3E12C006746D3
:1018E0007B0700D062E76307FF081F4301254346DB
:1018F000E4081D4093E7002D78D1751C6D056D0D32
:10190000012D00DCF2E05046801A8245BF41651A85
:101910007F42ED1B8446280200D48CE05046171A03
:10192000BA4292410C1B5542651B984614E70125AB
:10193000434600241D40002755E72A4CF61A2C4048
:1019400032E73D0028388540002717E73800FEF7CA
:10195000A5FC203006E70A43170000217A1E9741B4
:10196000EEE6002B00D0E5E0731C9C465B055B0DAA
:10197000012B00DC9FE01A4B9C4500D1C5E052448E
:1019800052458041641840422418E7075208174323
:101990006408664608E71248854200D185E01D00CC
:1019A000BCE629001F3EF140202B00D17FE0402201
:1019B000D31A9D402F437D1EAF4100240F430026C4
:1019C0008EE72B000F00203BDF40202D71D04023FD
:1019D0005D1BA9400A43511E8A4100211743AFE60F
:1019E000FF070000FFFF7FFFFFFF0F80002E3ED0AC
:1019F000B34EB44545D0802636046D423443382D6D
:101A000000DDA8E01F2D00DD1FE120262700504645
:101A1000761BB740E84007435046B040461EB041F1
:101A2000EC403843171ABA4292410C1B5242A41A96
:101A3000664698468BE6644667462C4300D08BE6A4
:101A4000002500260027EAE61E00ADE61F2B60DC1D
:101A50002027F81A0F00844687401000D84007431B
:101A600060468240501E8241D9401743F5E6260069
:101A70005046064305D0ED43002DD3D0904EB445DB
:101A8000BDD10C001700664698468DE68C4883420F
:101A90000BD06346D9E6002D00D096E00800104335
:101AA00000D1E2E00C0017009846854E7CE6002548
:101AB00080E700218EE7230050460343002E00D02C
:101AC000A8E0002B00D1DEE00B00134300D16BE651
:101AD00052445245804164184042241817002302A2
:101AE00000D4FDE6774B66461C405DE62500504677
:101AF0000543002ECFD1002D4FD10C00144300D14F
:101B0000A0E00C00170098464EE666460024002729
:101B100085E61F000800203FF8400700202B00D179
:101B20008EE04020C31A99400A43511E8A41002189
:101B3000174392E6002E14D126005046064362D089
:101B4000DB43002B5CD187189742924164185242C4
:101B5000A418664687E650462043441EA041002450
:101B600060E7574EB4454ED0802636045B4234437E
:101B7000382B00DD7FE01F2B00DD8BE020262700C7
:101B80005046F61AB740D84007435046B040461E6C
:101B9000B0410743DC40BF18D6E70D00154300D124
:101BA00002E65046801A8245BF41651A7F42ED1B0E
:101BB0008446280200D48DE65046171ABA42924154
:101BC0000C1B5242A41A9846EEE50D00154300D1B5
:101BD0006BE750466707C00807438020E40800030E
:101BE000044207D0CD08054204D12C009846D708FE
:101BF00049070F437B0FE4001C43FF00304ED3E541
:101C00002F4EB445B4D10C0017006646CCE5002732
:101C10000024E8E5002B39D00B00134300D144E742
:101C2000C008670707438020E40800030442E1D0AE
:101C3000CB080342DED1D70849070F431C00D9E780
:101C4000002171E700250027E9E52E002700203E4E
:101C5000F740202D2FD04026751BAC405046204326
:101C6000441EA04100243843DCE6802400252403E0
:101C7000134E0027D3E5504620430700781E8741C6
:101C80000024BF1860E70C0017008DE50C0017005A
:101C90000B4E89E51E002700203EF740202B0CD07C
:101CA0004026F31A9C4050462043441EA04107435F
:101CB0000024BF1848E70024D0E70024F3E7C0461B
:101CC000FF070000FFFF7FFF30B5134D0A034B00F5
:101CD000120B5B0DC90F0024AB4210DD0F4CA34269
:101CE0000FDC80240E4D64032243ED1A1F2D0BDD03
:101CF0000C48C31ADA405442002900D114002000D5
:101D000030BD094BCC18FAE7084CE840A4466344C0
:101D10009A400243EFE7C046FE0300001D040000A6
:101D20003304000013040000FFFFFF7FEDFBFFFF03
:101D300070B5002830D0C317C4185C40C50F200010
:101D4000FEF7ACFA174B184A1B1AD21A1F2A18DDD5
:101D5000164AD21A9440002224035B05240B5B0D23
:101D60000021100024030A0D240B12052243104CFD
:101D70001B05224013435B00ED075B082B43190052
:101D800070BD210091400A000B21081AC4405B0578
:101D90002403240B5B0DE3E700250023002400222D
:101DA000DEE7C0461E0400003304000013040000F8
:101DB000FFFF0F8010B5064A136810210B43136014
:101DC000002002F0F7FD02F0D7FD002010BDC04654
:101DD00000200240024A1368013313607047C04676
:101DE000000E0020014B18687047C046000E00200E
:101DF00030B583B004000023019302689168033377
:101E00000B40012B11D00023002B42D19168224BB3
:101E1000194216D1936801210B4393601F4B186838
:101E20001F49FEF771F9019018E01368DB0704D42D
:101E3000D3681B0403D40023E6E70123E4E701236E
:101E4000E2E7636C102213436364A36C0F3A1343FD
:101E5000A36401201EE0019B013B0193019B002B29
:101E6000F9D1FFF7BFFF050023681B68DB070ED41D
:101E7000FFF7B8FF401B0228F6D9636C102213430A
:101E80006364A36C0F3A1343A364012002E00020B3
:101E900000E0002003B030BD1700008010000020DB
:101EA00040420F0070B5041E00D1B9E0436C002B16
:101EB00000D180E0636CDB0600D5ABE0226893685C
:101EC00004210B4000D0A5E0616C5648014006306B
:101ED000FF3001436164906803210140012970D003
:101EE000002100290CD1D16818208143A06801434A
:101EF000D16021680A6992009208606802430A6111
:101F00002168CA6848480240CA60A2699203E16930
:101F1000C9030A43206A41030A43616B01295CD06B
:101F2000802149010A43E1680A432169022956D008
:101F30001343226B52001343626A012A51D0A26AF2
:101F4000C221FF318A4202D0E16A0A431343216869
:101F5000CA681A43CA60A26B802149058A420DD023
:101F6000012A0BD0022A09D0032A07D0042A05D05F
:101F7000052A03D0062A01D0072A0AD12068416920
:101F800007229143416120684169A56B2A400A43B9
:101F900042612268D26825490A40934230D0636C7E
:101FA00012229343023A13436364A36C0F3A134320
:101FB000A364012033E083644022835402F068F874
:101FC00078E71168C90704D4D168090403D4002153
:101FD00087E7012185E7012183E71900A2E70423B0
:101FE000A6E7002803D1802252021343A7E7626CC0
:101FF00020210A436264A26C1F390A43A2649EE74F
:102000000023A364636C03229343023A1343636483
:10201000002004E0636C102213436364012070BD50
:102020000120FCE7FDFEFFFF1902FEFFE7FF3F83F3
:10203000F8B504000E00170003689B685B0702D523
:1020400002252800F8BD4023C35C012B3AD00122B1
:102050004023C254C369012B32D0FFF7C9FE0500EB
:10206000002DEED1636C184A1A4080235B001343A5
:1020700063640023A3644022A354E36B134A9A626F
:10208000E36B134ADA62E36B124A1A6323681C2279
:102090001A602268536810210B4353602268D3688A
:1020A0000F390B43D360216840313B003200E06BB5
:1020B00000F098F92268936804210B439360C0E70D
:1020C0000025CDE70225BCE7FEF0FFFFDD2000087C
:1020D0004F2100085B2100087047000010B5436ADB
:1020E0005A6C502111422BD1596C802292000A4324
:1020F0005A641A68D068C0210901084213D1196ACC
:10210000002910D1116809070DD5916849070ED42F
:1021100051680C20814351605A6C0B490A400431CC
:10212000FF310A435A641800FFF7D6FF10BD5A6CFE
:1021300020210A435A649A6C1F390A439A64F2E7D1
:10214000DB6B1B6B9847F1E7FEFEFFFF704710B596
:10215000406AFFF7FBFF10BD704710B5406A436C43
:10216000402213434364836C3C3A13438364FFF778
:10217000F3FF10BD30B583B004000023019340335A
:10218000C35C012B00D18AE001224023C2540368C2
:102190009A68520775D4434A4868904256D09A6A62
:1021A00001200D68A84002439A62A36B8022520569
:1021B00093421ED0012B1CD0022B1AD0032B18D017
:1021C000042B16D0052B14D0062B12D0072B10D0C1
:1021D00022685069072303408868984209D05069F3
:1021E000072398435061206842698D682B40134350
:1021F00043610B681A00103A022A4CD82A4A126826
:10220000102B0ED0112B09D080235B041343264AD8
:1022100013600B68102B07D0002037E08023DB030E
:10222000F4E780231B04F1E7204B18682049FDF7F1
:102230006BFF830018184300019302E0019B013BF0
:102240000193019B002BF9D100201FE09A6A012025
:102250000D68A84082439A620B681A00103A022A5D
:102260001BD8114A1268102B09D0112B05D0114B25
:1022700013400D4A1360002008E00F4BF8E70F4BA6
:10228000F6E7436C202213434364012000224023DD
:10229000E25403B030BD0020F8E70020F6E702204A
:1022A000F7E7C04601100000082701401000002099
:1022B00040420F00FFFFFFFEFFFFBFFFFFFF7FFF5A
:1022C00070B5002811DB8308144DC0339B005C59A6
:1022D00003221040C000FC3216008640B44389013E
:1022E0000A40824022435A5170BDC0B20F230340BE
:1022F000083B9B0806339B00094A944663445D688B
:1023000003221040C000FF2422008240954389012F
:102310000C4084402C435C60E6E7C04600E100E0EE
:1023200000ED00E01F2318401E3B8340014A13606C
:102330007047C04600E100E070B5C56B0124066C33
:10234000B4406C60046863604368102B04D0036879
:1023500099600368DA6070BD03689A600368D960A9
:10236000F9E7000010B504000368064A9446634488
:1023700018001421FDF7C8FE80002064024BE363BF
:1023800010BDC046F8FFFDBF0000024070B5041E3E
:1023900024D021250223435501680B68104A1A40B6
:1023A000436880680343E06803432069034360692E
:1023B0000343A0690343E069034313430B60200018
:1023C000FFF7D0FF0023A362E36223636363A36389
:1023D000012262551F32A354002070BD0120FCE78A
:1023E0000FC0FFFF70B504002020205C012832D010
:1023F0000125202025540130205C012804D0002232
:102400002023E254022070BD0135203025540020E5
:10241000A063256828680126B04328602000FFF7E4
:102420008BFFE36A002B0BD0226813680E210B434D
:1024300013602268136801210B4313600020E2E758
:10244000226813680A210B43136022681368063957
:102450008B431360EDE70220D5E770B5C36B1A68B4
:1024600004682568016C04238B40134212D06B076B
:1024700010D523689B0603D423680422934323606A
:10248000C26B0423016C8B405360C36A002B00D0E5
:10249000984770BD02238B40134218D0AB0716D566
:1024A00023689B0606D423680A2293432360093AD3
:1024B0002123C254C26B0223016C8B405360002263
:1024C0002023C254836A002BE3D09847E1E7082316
:1024D0008B401342DDD02B07DBD523680E229343BC
:1024E0002360C26B01231900046CA1405160836317
:1024F0002122835400221F33C254036B002BC8D007
:102500009847C6E7F0B5C64600B582B000237EE026
:10251000DF080837BF003E5807251D40AD000F24D7
:10252000AC40A6430C69AC40250035433D507EE0ED
:10253000856864462540CE68BE4035438560456861
:102540002C004546AC434D682E09012535409D4081
:102550002C434460C46865462C408D68BD402C43C4
:10256000C4604C68E40051D5434DAE690124264354
:10257000AE61AD692C400194019C9C08A51CAD0086
:102580003E4EAE5903251D40AD000F27AF40BE4360
:102590009027FF05B84265D0394FB84264D0394F13
:1025A000B84263D0384FB8425AD00527AF403D00FB
:1025B00035430234A400314EA551344C2568D44330
:1025C00026002E404F68FF0301D515432E002F4DE6
:1025D0002E606D682E0026404F68BF0301D515435D
:1025E0002E002A4D6E60AD682E0026404F68FF0217
:1025F00001D515432E00254DAE60ED682C404E6888
:10260000B60201D52A431400204AD46001330A6877
:102610001400DC402CD001249C40A0462240F5D080
:102620004D68022D00D173E7122D00D170E70668C6
:102630005F0003252C00BC40E443A44626404C68C0
:102640002540BD40354305604D686E1E012E00D803
:102650006EE7112D00D16BE7122D00D07AE767E706
:102660000327A3E70027A1E701279FE702279DE7AC
:1026700002B004BC9046F0BD0010024000000140D2
:102680000004004800080048000C00480004014015
:1026900003690B4201D1002070470120FCE7002AAA
:1026A00001D1816270478161FCE7000070B582B0A2
:1026B00004000368DB0736D5C14B5A680C2313406E
:1026C000042B28D0BE4B5A680C231340082B1ED075
:1026D0006368012B4BD0002B50D1B94B1A68B94914
:1026E0000A401A601A68B8490A401A606368002BE9
:1026F0005CD0FFF777FB0500B14B1B689B0312D43E
:10270000FFF770FB401B6428F6D90320EAE1AC4BCD
:102710005B68DB03DCD5AA4B1B689B0303D56368AE
:10272000002B00D1DBE123689B0762D5A44B5B68DB
:102730000C221A424CD0A24B5A680C231340082B8F
:1027400042D0E368002B76D09D4A136801210B43E9
:102750001360FFF747FB0500994B1B689B0761D48B
:10276000FFF740FB401B0228F6D90320BAE1944A48
:10277000116880235B020B431360B7E7052B09D078
:102780008F4B1A688F490A401A601A688E490A40AE
:102790001A60ABE78A4B19688022D2020A431A609A
:1027A0001968802252020A431A609FE7FFF71AFB5A
:1027B0000500834B1B689B03B5D5FFF713FB401B3C
:1027C0006428F6D903208DE17D4B5B68DB03B8D428
:1027D0007B4B1B689B0704D5E368012B01D00120CC
:1027E00080E177490B68F82293432269D2001343B2
:1027F0000B6023681B0744D5E369002B2ED0704A79
:10280000536A01210B435362FFF7ECFA05006C4B4E
:102810005B6A9B0735D4FFF7E5FA401B0228F6D91F
:1028200003205FE166490B68F82293432269D200D6
:1028300013430B60DDE7624A136801218B43136089
:10284000FFF7D0FA05005E4B1B689B07D1D5FFF759
:10285000C9FA401B0228F6D9032043E1584A536ABB
:1028600001218B435362FFF7BDFA0500544B5B6AAD
:102870009B0706D5FFF7B6FA401B0228F6D90320BE
:1028800030E123685B0775D54D4BDB69DB002ED447
:102890004B4AD169802040050143D161D36903408F
:1028A0000193019B0125494B1B68DB0521D5A368DA
:1028B000012B32D0002B36D1414B1A6A01218A43B9
:1028C0001A621A6A03318A431A62A368002B40D045
:1028D000FFF788FA06003A4B1B6A9B0748D4FFF7BC
:1028E00081FA801B3A4B9842F5D90320FAE0002583
:1028F000D9E7364A116880235B000B431360FFF76A
:1029000071FA0600314B1B68DB05D0D4FFF76AFA79
:10291000801B6428F6D90320E4E0294A136A0121C8
:102920000B431362D1E7052B09D0254B1A6A01210D
:102930008A431A621A6A03318A431A62C5E7204B36
:102940001A6A04210A431A621A6A03390A431A628C
:10295000BBE7FFF747FA0600194B1B6A9B0707D531
:10296000FFF740FA801B1A4B9842F5D90320B9E0D3
:10297000012D1ED02368DB065AD56369012B2BD0AD
:10298000053349D00E4B5A6B04210A435A635A6BE4
:1029900003398A435A63FFF725FA0500084B5B6B3E
:1029A0009B0745D5FFF71EFA401B0228F6D90320E6
:1029B00098E0034AD36907490B40D361DAE7C04680
:1029C00000100240FFFFFEFFFFFFFBFF0070004012
:1029D00088130000FFFFFFEF444B5A6B04210A43AA
:1029E0005A635A6B03390A435A63FFF7FBF9050030
:1029F0003E4B5B6B9B0706D4FFF7F4F9401B0228A4
:102A0000F6D903206EE039494B6BF8229343A26953
:102A1000D20013434B630BE0344A536B04218B43C6
:102A20005363536BF4318B43A169C9000B43536368
:102A3000236A002B55D02D4A51680C220A40082ADF
:102A400052D0022B12D0294A136829490B40136037
:102A5000FFF7C8F90400254B1B689B013DD5FFF724
:102A6000C1F9001B0228F6D903203BE01F4A136876
:102A70001F490B401360FFF7B5F905001B4B1B689E
:102A80009B0106D5FFF7AEF9401B0228F6D90320BB
:102A900028E0164BDA6A0F218A43E16A0A43DA62B8
:102AA0005A6814490A40A16A606A01430A435A609D
:102AB0001968802252040A431A60FFF793F9040050
:102AC0000A4B1B689B0106D4FFF78CF9001B0228F8
:102AD000F6D9032006E0002004E0002002E00120F7
:102AE00000E0002002B070BD0120FBE700100240B2
:102AF000FFFFFFFEFFFFC2FF30B589B004AA154BF0
:102B0000180032C832C2110002680A606A461033E7
:102B100013CB13C21B6813600F4B5A680C2313406E
:102B2000082B13D1910C0733194004A8445C0A49BF
:102B3000C96A0B406946C95CD30302D407486043A5
:102B400005E00748FDF7E0FA604300E0044809B0FB
:102B500030BDC046E85300080010024000093D00A7
:102B600000127A0070B505000C004D4B1A68012365
:102B700013408B420BD24A490B68012293432343F3
:102B80000B600B681A40944201D0012085E02B684D
:102B90009B0706D5434A5368F0218B43A9680B4332
:102BA00053602B68DB074CD56B68012B21D0022BBF
:102BB00025D03C4A1268920700D46FE039494A6830
:102BC0000320824313434B60FFF70CF906006B6848
:102BD000012B1AD0022B26D0324B5B680C221A42F2
:102BE0002FD0FFF7FFF8801B2F4B9842F4D903201A
:102BF00053E02C4A12689203E0D401204DE0294AA8
:102C000012689201DAD4012047E0264B5A680C235F
:102C10001340042B15D0FFF7E5F8801B224B984298
:102C2000F3D9032039E01F4B5A680C231340082BBB
:102C300007D0FFF7D7F8801B1B4B9842F3D903202E
:102C40002BE0174B1A68012313409C420BD2144906
:102C50000B680122934323430B600B681A40944294
:102C600001D0012019E02B685B0706D50D4A536897
:102C70000E490B40E9680B435360FFF73DFF094BDA
:102C80005A6812090F231340094AD35CD840094BF4
:102C90001860002001F08EFE002070BD0120FCE7CE
:102CA000002002400010024088130000FFF8FFFFE0
:102CB0000455000810000020014B18687047C046FA
:102CC0001000002010B5FFF7F7FF044B5A68120AF6
:102CD00007231340024AD35CD84010BD00100240C5
:102CE0001455000810B5072303600A4B5C680322E3
:102CF000224042605C68F022224082605B68E022F1
:102D0000D2001340C360044B1A68012313400B60C8
:102D100010BDC046001002400020024030B5036ADA
:102D2000012293430362036A446882697325AA43BC
:102D30000D682A430225AB438D682B43154DA842ED
:102D400020D0154DA8421DD0144DA8421AD0144DC4
:102D5000A84217D00F4DA84208D00F4DA84205D069
:102D60000E4DA84202D00E4DA84205D10D4D2C406B
:102D70004D692C438D692C43446082614A684263EB
:102D8000036230BD0825AB43CD682B430425AB431C
:102D9000E0E7C046002C01400040014000440140F3
:102DA00000480140FFFCFFFF30B5036A1A4A134098
:102DB0000362036A4568C4697532FF3294430A6846
:102DC0001443164A13408A6812021343144A90426D
:102DD00019D0134A904208D0124A904205D0124AA4
:102DE000904202D0114A904207D1114A15404A69D7
:102DF000120115438A69120115434560C4614A688E
:102E0000C263036230BD0B4A1340CA681202134307
:102E1000094A1340DDE7C046FFFEFFFFFFFDFFFF4D
:102E2000002C0140004001400044014000480140A6
:102E3000FFCFFFFFFFF7FFFFFFFBFFFF30B5036A88
:102E4000134A13400362036A4568C269114C224069
:102E50000C6824022243104C23408C682403234333
:102E60000E4CA04208D00E4CA04205D00D4CA04202
:102E700002D00D4CA04204D10C4C2C404D69AD0148
:102E800025434560C2614A680264036230BDC046A2
:102E9000FFEFFFFFFF8CFFFFFFDFFFFF002C014074
:102EA000004001400044014000480140FFBFFFFFD7
:102EB00030B5036A046A0125AC4304628469EF35C6
:102EC000AC43120122430A24A343194382610162E5
:102ED00030BD000030B5036A1024A3430362846947
:102EE000036A054D2C4012032243A024A343090189
:102EF00019438261016230BDFF0FFFFF83687022BA
:102F000093430722114389B21943816070470368D4
:102F1000DA6801210A43DA60026813680B43136020
:102F2000002070477047704770477047704710B572
:102F3000040003681A6992070FD5DA6892070CD566
:102F4000032252421A610123037703689B699B079E
:102F500063D0FFF7E9FF0023237723681A6952073C
:102F600012D5DA6852070FD5052252421A610223A0
:102F7000237723689A69C0239B001A4253D020000C
:102F8000FFF7D2FF0023237723681A69120710D5B1
:102F9000DA6812070DD5092252421A6104232377F9
:102FA0002368DB699B0745D02000FFF7BDFF0023A6
:102FB000237723681A69D20612D5DA68D2060FD5AC
:102FC000112252421A61082323772368DA69C02349
:102FD0009B001A4235D02000FFF7A6FF002323777D
:102FE00023681A69D20702D5DA68D20730D4236879
:102FF0001A69120602D5DA68120630D423681A69F3
:10300000520602D5DA68520630D423681A6992064D
:1030100002D5DA68920630D410BDFFF784FF200095
:10302000FFF783FF97E72000FFF77DFF2000FFF702
:103030007CFFA7E72000FFF776FF2000FFF775FF72
:10304000B5E72000FFF76FFF2000FFF76EFFC5E731
:10305000022252421A61200001F080FCC7E781225F
:1030600052421A61200000F04CFAC7E74122524256
:103070001A612000FFF75AFFC7E7212252421A6166
:10308000200000F03DFAC7E70368214A90423AD099
:103090008022D205904236D01E4A904233D01C4A3C
:1030A000904212D08022D20590420ED0194A90420E
:1030B0000BD0194A904208D0184A904205D0184ABD
:1030C000904202D0174A904203D1174A1340CA686F
:1030D0001343802293434A69134303608B68C3629E
:1030E0000B6883620A4B984208D00C4B984205D07B
:1030F0000B4B984202D00B4B984201D10B690363F2
:10310000012343617047702293434A681343C6E723
:10311000002C01400004004000200040004001401D
:103120000044014000480140FFFCFFFF70B5041E51
:1031300014D03D23C35C002B0AD03D2502236355E8
:10314000211D2068FFF7A0FF01236355002070BDFB
:1031500000223C33C25401F0ABFCEEE70120F6E75D
:1031600070B5041E14D03D23C35C002B0AD03D254E
:1031700002236355211D2068FFF786FF0123635555
:10318000002070BD00223C33C254FFF7CBFEEEE7B7
:103190000120F6E730B5036A102293430362036A05
:1031A00045688469174A14400A68120214432022B1
:1031B00093438A6812011343134A904219D0124A6A
:1031C000904208D0114A904205D0114A904202D054
:1031D000104A904207D1104A15404A69920015439F
:1031E0008A6992001543456084614A68826303627C
:1031F00030BD80229343CA68120113434022934397
:10320000DDE7C046FF8CFFFF002C0140004001407D
:103210000044014000480140FFF3FFFF70B5040087
:103220000D003C23C35C012B69D001213C23C15418
:1032300001310133C154042A37D019D9082A4AD0A0
:103240000C2A2AD129000068FFF7F8FD2268D1690D
:1032500080231B010B43D3612268D36929490B40AA
:10326000D3612168CB692A6912021343CB6114E050
:10327000002A12D129000068FFF750FD22689369E7
:1032800008210B4393612268936904398B4393614E
:103290002268936929690B43936101223D23E2541B
:1032A0000022013BE254002070BD29000068FFF7B6
:1032B00071FF2268916980231B010B43936122688F
:1032C000936910490B40936121688B692A69120246
:1032D00013438B61E1E729000068FFF765FD226871
:1032E000D36908210B43D3612268D36904398B4326
:1032F000D3612268D36929690B43D361CDE70220EA
:10330000D2E7C046FFFBFFFF30B58468034D2C4079
:103310001B021A4311432143816030BDFF00FFFFB0
:1033200010B504003C23C35C012B00D17FE00122D7
:103330003C23C25401320133C254026893683D48B1
:10334000034093600B68402B5DD010D9702B43D0A5
:1033500020D8502B4DD0602B36D1CA6849682068E0
:10336000FFF7B8FD60212068FFF7C8FD2CE0102BA7
:1033700053D008D9202B55D0302B25D130212068AF
:10338000FFF7BCFD20E0002B1ED100212068FFF7D5
:10339000B5FD19E080225201934210D080229201A3
:1033A000934211D1CB684A6889682068FFF7ACFF67
:1033B000226891688023DB010B43936004E022685C
:1033C000936807218B43936001223D23E25400223E
:1033D000013BE254002010BDCB684A688968206830
:1033E000FFF792FF2268936877218B430B4393602A
:1033F000EAE7CA6849682068FFF75AFD502120684B
:10340000FFF77CFDE0E7CA6849682068FFF750FDD8
:1034100040212068FFF772FDD6E710212068FFF7F2
:103420006DFDD1E720212068FFF768FDCCE7022081
:10343000D1E7C0468800FFFF10B501248C40036A25
:10344000A3430362036A8A401A43026210BD00006C
:1034500010B5040001220068FFF7EEFF2368114A4F
:10346000934219D0104A934218D0104A934217D071
:103470000F4A93420ED00022002A04D0596C8022B9
:1034800012020A435A642268136801210B43136035
:10349000002010BD0122EFE70122EDE70122EBE75A
:1034A0000122E9E7002C01400040014000440140B6
:1034B00000480140F0B53C23C35C012B1ED03C22E8
:1034C000012585543D24022303550668736870273F
:1034D000BB437360066873680F683B43736006689C
:1034E000B3688027BB43B3600668B36849680B4381
:1034F000B3600555002383540020F0BD0220FCE793
:1035000070477047842801D0033070470020FCE7E3
:1035100010B500F087FB002010BDF0B585B00D00A0
:103520004668076804690823C05EFFF7EBFFA2B294
:1035300003AB019300902B003900300000F042FBF8
:10354000012802D1039805B0F0BD0020FBE710B5BB
:10355000002800D1013000F09FFC002010BD0300C6
:1035600008334360012252428260C360036100233A
:103570000360704700230361704743684B609A689B
:103580008A609A685160996008610368013303603A
:10359000704730B50C68631C02D00200083202E0AC
:1035A000026904E01A0053681D68AC42FAD25368FD
:1035B0004B6099608A605160086103680133036061
:1035C00030BD0369426881689160826841685160DA
:1035D0005A68904205D0002202611A68501E186095
:1035E000704782685A60F6E7034B1B68013301D0CD
:1035F00072B6FEE772B6FEE7000000200000000091
:103600000B4A13681868203080F30988022080F381
:103610001488BFF36F8F3FBCAE4608BC04BC62B6D3
:103620001847C046C046C046C046C046C046C04611
:10363000B40C002010B5031F802464041C60043BFC
:103640001960043B02491960143B1A60403810BDF0
:10365000E93500087047000080225205034B1A60CC
:10366000BFF34F8FBFF36F8F7047C04604ED00E08C
:1036700072B6044A136801331360BFF34F8FBFF370
:103680006F8F704700000020064B1B68002B01D194
:1036900072B6FEE7013B034A1360002B00D162B60D
:1036A0007047C04600000020EFF3108072B67047EC
:1036B000002080F310887047000000000000000028
:1036C000EFF309800E4B1A6820381060F0C04446B2
:1036D0004D4656465F46F0C008B572B600F02CFC69
:1036E00062B60CBC116808681030F0C8A046A94644
:1036F000B246BB4680F309882038F0C81847C04658
:10370000B40C002010B5FFF7CFFF040000F0C0FAA2
:10371000002803D080225205024B1A602000FFF7D8
:10372000C8FF10BD04ED00E010B5064B186806494F
:10373000FCF7EAFC0138054B18600722044B1A60BD
:1037400010BDC04610000020DD02000014E000E0C3
:1037500010E000E010B50A4B1968FF2212040A437A
:103760001A601968FF2212060A431A60FFF7DCFF8D
:103770000022044B1A60FFF743FFFFF735FFC046F6
:1037800020ED00E000000020124A53071FD0D11D99
:1037900007239943C0231B015B1A9B180A000E489C
:1037A000026000214160D318083B072083430B4887
:1037B000036059601960991A51601360084B1960D1
:1037C000084B196080221206074B1A607047C0230D
:1037D0001B01E4E7A0000020AC0C00209C000020AE
:1037E000A80C0020A40C0020A00C002010B5124B47
:1037F0001A68824219D359685C18A04203D1406804
:1038000009185960180041684418A24211D10B4CA4
:103810002468A2420BD05268891841601A68126865
:103820000260984200D0186010BD1300E0E7046009
:10383000F7E70260F5E7C046AC0C00209C000020D2
:1038400070B5040000F01CFA2E4B1B68002B0FD043
:103850002D4B1B6823424BD1002C0CD0083463073E
:1038600009D007239C430834234204D072B6FEE7F4
:10387000FFF78AFFECE7002C3CD0244B1B689C42EE
:103880003AD8234B1D6801E02B0015006A6894426A
:1038900002D92A68002AF7D11A4A126895422DD017
:1038A0001E6808362A681A606B681B1B102B08D923
:1038B0002819420701D072B6FEE743606C60FFF73B
:1038C00095FF6A6811490B689B1A0B6011490968DA
:1038D0008B4201D20F490B600B4B1B6813436B608B
:1038E00000232B6000F062FA730709D072B6FEE77E
:1038F0000026F7E70026F5E70026F3E70026F1E7C4
:10390000300070BD9C000020A00C0020A40C002002
:10391000AC0C0020A80C002070B5002820D00500B9
:10392000083D6B680F4A12681A4201D172B6FEE771
:10393000010008390968002901D072B6FEE708388D
:1039400004009343436000F09BF96368064A1168E2
:103950008C46634413602800FFF748FF00F026FA06
:1039600070BDC046A00C0020A40C00200B4B1B68AF
:103970001B68002B0AD10133002B09D1074B1B68B0
:10398000DB68DB685A68064B1A6070470023F3E770
:1039900001225242024B1A60F7E7C046B80C0020E1
:1039A000900D002010B50400006BFFF7B5FF20005C
:1039B000FFF7B2FF10BD0000F0B583B00090019397
:1039C000089C0A9E1D4B9C4662449200336B9C46A9
:1039D000624407239A43170000230F2B09D8C81805
:1039E0000578F218343215700278002A01D00133BC
:1039F000F3E700224323F254062C00D90624F46294
:103A000074640025B564301DFFF7B4FD3000183034
:103A1000FFF7B0FD366107231C1BB4617662F564C5
:103A20004933F554019A00993800FFF703FE3060DE
:103A3000099B002B00D01E6003B0F0BDFFFFFF3FCD
:103A400070B5002407E0A3001B199A000E488018E7
:103A5000FFF785FD0134062CF5D90C4D2800FFF742
:103A60007EFD0B4C2000FFF77AFD0A48FFF777FD3B
:103A70000948FFF774FD0948FFF771FD084B1D6009
:103A8000084B1C6070BDC046C00C0020640D0020B7
:103A9000780D0020980D0020C40D0020B00D0020EE
:103AA000B80C0020BC0C002010B50400FFF7E0FDAE
:103AB0001F4A1368013313601E4B1B68002B2BD069
:103AC0001D4B1B68002B07D11A4B1B68DB6AE26A8F
:103AD000934201D8174B1C60184A136801331360D6
:103AE000E26A174B1B689A4201D9154B1A60211DD7
:103AF00093009B189A0013488018FFF73EFDFFF7CC
:103B0000C3FD0D4B1B68002B05D00A4B1B68DA6AFE
:103B1000E36A9A4208D310BD064B1C601368012B60
:103B2000DAD1FFF78DFFD7E7FFF796FDF3E7C04641
:103B30004C0D0020B40C0020AC0D00205C0D0020CA
:103B4000600D0020C00C002070B504000D00174B64
:103B50001E68174B18680430FFF733FD631C13D041
:103B60003419134B1B685C60A64216D8114B1868B9
:103B70000F4B19680431FFF70CFD0F4B1B689C427B
:103B800012D20D4B1C600FE0002DE9D0084B1968D4
:103B900004310A48FFF7F1FC06E0094B1868044BB2
:103BA00019680431FFF7F5FC70BDC046D80D002040
:103BB000B40C0020B80C0020900D0020B00D0020A7
:103BC000BC0C0020F0B587B00490059114001F00D4
:103BD0009000FFF735FE061E1ED05420FFF730FE82
:103BE000051E15D00663002D18D0002303930295FF
:103BF0000D9B01930C9B00933B00220005990498B8
:103C0000FFF7DAFE2800FFF74FFF012007B0F0BDF5
:103C10003000FFF781FEE6E70025E4E7012040429F
:103C2000F4E7000000B583B00F4B0193002300932D
:103C300080220E490E48FFF7C5FF012803D0431C20
:103C40000FD003B000BD72B601225242094B1A6078
:103C50000232094B1A600022084B1A60FFF77AFD06
:103C6000EFE772B6FEE7C0468C0D0020C454000892
:103C7000213F0008900D0020AC0D0020D80D002041
:103C8000024A1368013313607047C046580D002084
:103C9000F8B53B4B1B68002B66D13A4B1D680135CC
:103CA0001D60002D12D1384B1B681B68002B01D002
:103CB00072B6FEE7344A1168344B18681060196018
:103CC000334A136801331360FFF750FE314B1B6812
:103CD0009D423DD20024304B1B68DA6A93009B184A
:103CE0009A002E4BD358012B43D9012441E00124E3
:103CF000254B1B681B68002B2CD00023002B2BD1DD
:103D0000214B1B68DB68DE6873689D4229D3371D31
:103D10003800FFF756FCB36A002B03D03000183090
:103D2000FFF74FFCF26A1E4B1B689A4201D91C4BED
:103D30001A6093009B189A00184880183900FFF702
:103D40001CFCF26A144B1B68DB6A9A42CFD2CFE7A5
:103D50000024CDE70133D1E7012252420D4B1A6016
:103D6000B9E70C4A1360B6E70E4A136801331360D3
:103D700000240D4B1B68002B00D001242000F8BD4F
:103D8000580D0020D80D0020B80C0020BC0C0020DD
:103D9000940D0020900D0020B40C0020C00C0020D9
:103DA000600D0020540D0020DC0D002070B5324B5A
:103DB0001B68002B01D172B6FEE7FFF759FC2E4BB2
:103DC0001A68013A1A601B68002B50D12B4B1B68F4
:103DD000002B04D10024FFF757FC200070BD002405
:103DE000274B1B68002B23D0254BDB68DC682000A9
:103DF0001830FFF7E6FB251D2800FFF7E2FBE26A1B
:103E0000204B1B689A4201D91E4B1A6093009B18E5
:103E10009A001D4880182900FFF7AFFB1B4B1B6859
:103E2000DB6AE26A9A42DBD30122194B1A60D7E7B8
:103E3000002C01D0FFF79AFD164B1C68002C0AD10C
:103E4000134B1B68002B14D0FFF706FC0124C2E7BC
:103E5000013C002C07D0FFF71BFF0028F8D00122FF
:103E60000B4B1A60F4E700220A4B1A60E8E70024C3
:103E7000B1E70024AFE7C046580D00204C0D0020EC
:103E8000980D0020600D0020C00C0020B40C002014
:103E9000DC0D0020540D002010B5041E0ED00A4B7E
:103EA0001B68002B01D072B6FEE7FFF7E9FE002188
:103EB0002000FFF749FEFFF779FF00E0002000280F
:103EC00001D1FFF7C9FB10BD580D002010B5114BF3
:103ED0001B68002B1DD0FFF7D3FE0F4B1C68FFF7AC
:103EE00065FF002CF3D0FFF7C3FB0B4BDB68DC68EE
:103EF000201DFFF766FB094A1368013B1360054A62
:103F00001368013B1360FFF7BFFB2000FFF74AFD7A
:103F1000DDE710BD500D0020C40D00204C0D002029
:103F200010B5FFF7D3FF034B1B68012BF9D9FFF73F
:103F300093FBF6E7C00C002010B51D4B1B68002B4F
:103F40000FD100221B4B1A601B4B1B689A00D21822
:103F500091001A4A8A58002A09D1002B05D0013B4A
:103F6000F4E70122134B1A6010BD72B6FEE7134846
:103F70009A0041184C6864684C60D218910008316E
:103F8000401884420BD09A00D21891000B4A521864
:103F90005268D1680A4A1160074A1360E4E7606812
:103FA0009A00D2189100054A52185060EBE7C046BB
:103FB000580D0020DC0D0020600D0020C00C0020FA
:103FC000B40C002000B585B00C22002101A800F03F
:103FD0008BFE2D482D4B0360002343608360C3603C
:103FE00001220261082141618361C361026243626F
:103FF000C221FF318162C36202634263FDF752FF57
:1040000000282ED10123019380235B010293022318
:10401000039301A91C48FEF7ADF8002824D1022320
:10402000019301A91848FEF7A5F800281FD1032322
:10403000019301A91448FEF79DF800281AD1042322
:10404000019301A91048FEF795F8002815D1052322
:10405000019301A90C48FEF78DF8002810D105B096
:1040600000BD00F087FCCDE700F084FCD7E700F04E
:1040700081FCDCE700F07EFCE1E700F07BFCE6E79A
:1040800000F078FCEBE7C0465C0E00200024014005
:1040900030B589B004001422002103A800F024FEEA
:1040A0001D4B22689A4201D009B030BD1B4B9A6962
:1040B0008025AD002A439A619A692A400192019AAB
:1040C0005A69802189020A435A615B690B40029355
:1040D000029B3E2303933B3B049303A99020C0051E
:1040E000FEF710FA0E480F4B036000234360836015
:1040F0008022C26005618022120142612022826119
:10410000C361FEF743F9002803D1054BE3635C620A
:10411000CAE700F02FFCF8E700240140001002403D
:10412000180E00200800024010B50522024903487D
:10413000FDF77EFF10BDC046040E00205C0E00207F
:10414000034B9B6803485843000B80B27047C0463E
:10415000040E0020B80B0000034B1B6803485843B3
:10416000000B80B27047C046040E0020B80B000060
:10417000034B5B6803485843000B80B27047C0464E
:10418000040E0020B80B0000034BDB6803485843C3
:10419000000B80B27047C046040E0020B80B000030
:1041A000034B1B6903485843000B80B27047C0465D
:1041B000040E0020B80B000000B583B0094A516915
:1041C000012319435161526913400193019B00225D
:1041D00003210920FEF774F80920FEF7A3F803B0C5
:1041E00000BDC0460010024000680B68C01A70474E
:1041F000F0B5C1B000230AE05A0000216846115210
:1042000010A8115230A8115220A8115201331F2BAF
:10421000F2D9002645E001331F2B18D85A00684612
:10422000125A914200D211005A0010A8125A974215
:1042300000D217005A0020A8125A944200D214004B
:104240005A0030A8125A9542E5D21500E3E7AF2391
:104250009B00994242D9F539FF3988B2AF239B00C0
:104260009F423DD9F53FFF3FBFB2C019FDF760FD4A
:104270001C4A1D4BFCF75EFB1C4B186059601C4B25
:104280001D802000FDF754FD1A4A1B4BFCF742F835
:104290001A4A1B4BFCF74EFB00F0A8FE194B1860A6
:1042A00059600220FFF753F91F243440FFF754FFF1
:1042B00064006B46E052FFF75BFF10ABE052FFF784
:1042C00063FF20ABE052FFF76BFF30ABE0520136EB
:1042D000002300250024002700219DE70020BDE7E2
:1042E0000027C2E7AE47E17A14AE1640F80D002071
:1042F000E00D0020D7A3703D0A2F7D40E17A14AE77
:10430000472B8A40E80D0020F0B5C64600B590B0B6
:10431000002304E09A002A496846115001330F2B0C
:10432000F8D900270025FF2600241AE099006A46E4
:104330008958641801330F2BF8D9E4084746220046
:10434000C72149001F4BE3188B4224D8372D22D9AF
:1043500002221D4B1A701C4B1B789E4200D0002578
:104360001E000920FFF7F3F80135FFF7E9FEAF2340
:10437000DB009842E3DD7B1C98460F233B409B000B
:104380006A469850114B04221021684600F0EAFC5E
:1043900008230024CFE70E4B9C466244952A05D89B
:1043A000372D03D90122084B1A70D4E7094B9C42E0
:1043B000D1DD372DCFD90022034B1A70CBE7C04691
:1043C000B80B0000BFF9FFFFF00D0020E941000825
:1043D000CCF7FFFF2D090000F8B5DE4657464E46E4
:1043E0004546E0B5FFF7A0FE00F04EFA0E2818D9BA
:1043F0000020AA49AA4B186059600121022000F050
:104400000DFA002000F0F6F900220023002000F051
:10441000E7FB0023994698469B469A4600250024D0
:104420002CE00130FDF784FC9E4A9F4BFCF7B6FE62
:104430009B4B18605960E0E703251FE003251DE052
:1044400000239846022519E0032517E0012515E011
:1044500053465A425341DBB29A461900002000F0FD
:10446000DDF917E000239946012D5BD0002D20D007
:10447000022D00D19BE0032D00D1F6E01420FFF7C0
:1044800066F80134A4B20A212000FBF7C3FE89B20A
:104490000029DDD0854B1A8896235B009A42E1D92A
:1044A0004B46182B03D801239C46E144DCE7032547
:1044B000DAE70021012000F0B1F9002000F09AF9BC
:1044C0000121032000F0AAF90021042000F0A6F940
:1044D0000021052000F0A2F90021062000F09EF93D
:1044E000734B186859680022724BFBF7C3FE002813
:1044F00015D001239C46E0444346192B9CD86E4BB3
:104500001B78013BDBB2012BB8D8654B1A685B689E
:10451000012000F065FB002398460125AEE700234B
:104520009846E9E70121012000F078F9012000F028
:1045300061F90121032000F071F90121042000F04C
:104540006DF90021052000F069F90021062000F036
:1045500065F9574B1E685F680022584B30003900E0
:10456000FBF774FE002807D10022554B30003900BC
:10457000FBF780FE002817D001239C46E044434609
:10458000192B00D95AE74C4B1B78022B00D157E767
:10459000002B00D072E700220023002000F020FB57
:1045A00000239846002569E700239846E7E7142191
:1045B0002000FBF72FFE89B2002949D0012000F02E
:1045C00019F90121032000F029F90121042000F04C
:1045D00025F90121052000F021F90021062000F035
:1045E0001DF9334B1E685F680022344B30003900E0
:1045F000FBF72CFE002815D10022314B300039008A
:10460000FBF738FE00280DD100222E4B2449086804
:104610004968FCF7C3FD2C4B1A685B68FBF716FE74
:1046200000281FD001239C46E0444346192B00D9A3
:104630000AE7214B1B78012B00D107E7002B00D0A4
:104640001CE700220023002000F0CAFA002515E72D
:104650005B465A425341DBB29B461900012000F0F1
:10466000DDF8ABE700239846DFE70021012000F0EA
:10467000D5F8002000F0BEF80021032000F0CEF8AD
:104680000021042000F0CAF80021052000F0C6F83F
:104690000121062000F0C2F8F0E6C04600003C40D0
:1046A000080000209A99999999990940E00D0020F5
:1046B000F80D002000005440F00D0020008056400E
:1046C00000C072400000F43FE80D002070B590B0CB
:1046D0000BA8134C0300220062CA62C322CA22C381
:1046E0000021FEF71AFF0F4B186006A802002300F6
:1046F000143362CB62C222CB22C20021FEF70DFF2F
:10470000094B186001A8020028342ACC2AC20ACC1E
:104710000AC20021FEF701FF044B186010B070BD03
:1047200008540008B00E0020A80E0020AC0E002097
:10473000F0B589B01422002103A800F0D5FA284B67
:10474000596980208002014359615A6902400092F0
:10475000009A59698020C002014359615A69024098
:104760000192019A5A69802109030A435A615B69DF
:104770000B400293029B1B4F002239001A48FDF7A1
:104780008EFFC026B600002231001848FDF787FFD3
:1047900001250395164B04930024059403A990204A
:1047A000C005FDF7AFFE039704950594069403A991
:1047B0000D48FDF7A7FE039604950594069403A9FA
:1047C0000A48FDF79FFEF0231B010393049405950F
:1047D00003A99020C005FDF795FE09B0F0BDC046C5
:1047E0000010024037800000000400480008004824
:1047F0000000121010B5002806D100228021090205
:104800000548FDF74CFF10BD012280210902024836
:10481000FDF745FFF7E7C0460004004810B54A1E03
:104820009141CAB2062808D88000144B1B589F46F5
:10483000802149001248FDF732FF10BD8021890018
:104840000F48FDF72CFFF8E701210E48FDF727FF81
:10485000F3E702210B48FDF722FFEEE704210948A8
:10486000FDF71DFFE9E710210648FDF718FFE4E713
:1048700020210448FDF713FFDFE7C046E854000895
:10488000000800480004004870B59025ED0580211F
:1048900049002800FDF7FCFE0138444244418021D4
:1048A00089002800FDF7F4FE012816D000200443FB
:1048B0008021C9009020C005FDF7EAFE01280ED036
:1048C00000200443802109019020C005FDF7E0FE8F
:1048D000012806D00020204370BD0130E7E70330F7
:1048E000EFE70730F7E710B590B03022002104A8B9
:1048F00000F0FAF9102410220021684600F0F4F9C3
:1049000012230493113B0793099308940A940E3CD5
:104910000C94A0239B030E9304A8FDF7C7FE072366
:104920000093019400230293039301216846FEF74C
:1049300019F910B010BD10B5FDF73CFAFFF7D3FF21
:10494000FFF7F6FEFFF738FCFFF73CFB00F0ECF852
:10495000FFF7BCFEFEF7DCFDFEE7000010B50268C5
:10496000034B9A4200D010BDFDF734FAFBE7C04676
:10497000002C01407047000000B583B00C4B9969D2
:1049800001221143996199690A400092009ADA69FB
:10499000802149050A43DA61DB690B400193019BE1
:1049A0000022032102204042FDF78AFC03B000BD33
:1049B0000010024000B587B0010000220D20FDF775
:1049C0007FFC0D20FDF7AEFC134A916980200001A9
:1049D00001439161936903400093009B01A902A8E0
:1049E000FEF780F9FEF76EF90C49FBF78DFB431ECD
:1049F0000B480C4A02600C4AC2604360002303610A
:104A00008360FEF793FB002802D0012007B000BDB1
:104A10000348FEF77CFAF9E70010024040420F001D
:104A2000B40E0020002C0140E70300007047FEE7B1
:104A300010B50248FDF711FD10BDC046180E00204C
:104A400010B50248FEF773FA10BDC046B40E002040
:104A5000114B1A6801210A431A605A680F48024034
:104A60005A601A680E4802401A601A680D480240DF
:104A70001A605A680C4802405A60DA6A0F20824372
:104A8000DA621A6B094802401A635A6B8A435A6306
:104A900000229A607047C046001002400CB8FFF830
:104AA000FFFFF6FEFFFFFBFFFFFFC0FFACFEFFFFB7
:104AB00082B002688023DB059A4201D002B07047C1
:104AC000044AD16901231943D161D269134001938A
:104AD000019BF3E70010024010B586B004001422D9
:104AE000002101A800F000F922688023DB059A422A
:104AF00001D006B010BD0B4A5169802080020143ED
:104B00005161536903400093009B80231B02019372
:104B100002230293059301A99020C005FDF7F2FC42
:104B2000E7E7C0460010024000B58FB01022002118
:104B30000AA800F0D9F80822002108A800F0D4F84B
:104B40001C22002101A800F0CFF823488023DB05B8
:104B50000360002343608360204AC2600361836175
:104B6000FEF7E4FA002828D180235B010A930AA902
:104B70001948FEF7D5FB002822D11748FEF7F0FAB6
:104B8000002820D100230893099308A91248FEF7B2
:104B900091FC00281AD16023019300230293039310
:104BA0000593002201A90C48FEF738FB002810D11C
:104BB0000948FFF791FF0FB000BDFFF7DBFED3E719
:104BC000FFF7D8FED9E7FFF7D5FEDBE7FFF7D2FE08
:104BD000E1E7FFF7CFFEEBE7F40E002080BB00001B
:104BE00030B589B014001D0000281ED00022104BE3
:104BF00020002900FCF7D2FA00220E4BFBF79AFEA8
:104C0000FBF76AFB80B260230193029000230393B9
:104C10000593094C002201A92000FEF7FFFA0021AC
:104C20002000FEF715FC09B030BD0448EBE7C04694
:104C30000070E74000004E40F40E002080BB0000F2
:104C40000D4885460D480E490E4A002302E0D4580F
:104C5000C4500433C4188C42F9D30B4A0B4C0023C4
:104C600001E013600432A242FBD3FFF7F1FE00F033
:104C700017F8FFF760FEFEE700200020000000208C
:104C80007C0000205855000880000020340F0020D0
:104C9000FEE70000014B18687047C0461400002072
:104CA00070B500260C4D0D4C641BA410A64209D112
:104CB000002600F08DFB0A4D0A4C641BA410A6428E
:104CC00005D170BDB300EB5898470136EEE7B3004D
:104CD000EB5898470136F2E7505500085055000848
:104CE000505500085455000803008218934200D123
:104CF000704719700133F9E730B50024012B08DC47
:104D0000920803680C68013A10C008C1002AF8DC58
:104D100030BD035D0D5D05550B550134131B002B94
:104D2000F7DCF5E7F8B50C00150007001E00984702
:104D3000290000280BDA2000B047002805DB2900F5
:104D40003800B04700280BDB3C002000F8BD2000F5
:104D5000B0470028F9DC29003800B0470028F3DB11
:104D60002C00F2E7F0B5170089B000900291039390
:104D7000022303220193009B134206D1174204D160
:104D80003B1F1A00531E9A410192029B062B27D803
:104D9000009B009ADE19029B7B43D3180293029B6F
:104DA0009E4200D31FE1340015E0019B3A00290028
:104DB0002000FFF7A1FF0DE0E51B21002800039B69
:104DC000984700280ADD019B002BEED123682A6852
:104DD00022602B602C00009BA342EDD3F619DEE786
:104DE000029B5C087C43009B1C19029B072B27D06D
:104DF0005E1E7E43009B9E190493029B282B18D9AC
:104E0000DD087D43009B009859194A19039BFFF761
:104E100089FF621921000490039B601BFFF782FF4A
:104E200004006800301A32004119039BFFF77AFF33
:104E300006002100039B32000498FFF773FF040073
:104E4000019B002B30D1009B21681B68009A1160E8
:104E50002360009BDE19029B04965C1E7C43009B32
:104E60001C19F3190793002305940693079BDD1B78
:104E7000AC4200D2AEE000992800039B984700287E
:104E800032DC0DD1019B002B15D1049B29681B68D6
:104E9000049A11602B60049BDB1904930123069391
:104EA000079BDB190793E1E7019B3A00210000987B
:104EB000FFF722FFCDE7019B3A0029000498FFF796
:104EC0001BFFE8E700280ED1019B002B1ED1059A9D
:104ED0002368126822600692059A1360059BDB1B0B
:104EE000059301230693E41BAC4273D30099200081
:104EF000039B98470028E5DA019B002B0DD0019B0E
:104F00003A0021002800FFF7F7FE0AE0019B3A0073
:104F100005992000FFF7F0FEE0E72B6822682A6081
:104F20002360E41BBAE7019B3A0029002000FFF749
:104F3000E3FE0DE0E51B21002800039B98470028B5
:104F40000ADD019B002BEED123682A6822602B60CA
:104F50002C00009BA342EDD3F619029B9E4242D245
:104F60003400F6E7009AD3180293049BEE1A9A1ABB
:104F7000B24200DD3200002A04D0A91A019B009839
:104F8000FFF7BAFE059B059A1C1B029B9A1AD21BBF
:104F9000A24200D92200002A05D0029B2800991ABB
:104FA000019BFFF7A9FEB74209D239003000FBF799
:104FB000ABF8039B01003A000098FFF7D3FEA7422D
:104FC00011D2029B39001B1B20000093FBF79CF8B9
:104FD0000290CDE6029B069A7B43002AC2D1009A3A
:104FE000D3180293B9E709B0F0BD0000F0B58DB059
:104FF00004000D0000F074F8314B06001B780F0020
:105000005BB2013332D02000290000F0D7F900282C
:105010002CD02C4A2C4B20002900FBF72BF90190B7
:10502000002832D003230293284B0694079503935C
:1050300000230A93224B049405951B785BB2002B46
:1050400018D1E022224B12060892099302A800F020
:10505000BDF9002814D00A9B0193002B04D0FFF760
:1050600019FE0A9B01930360089E099F30003900D6
:105070000DB0F0BD0020174908900991022BE5D131
:10508000FFF708FE22230360E5E7134A134B2000D5
:105090002900FBF7DBF80028E8D0042302930B4B30
:1050A00000220393019B069407950A93002308921C
:1050B0000993034B049405951B785BB2DEE7C04669
:1050C00078000020EF39FAFE422E86401C55000879
:1050D000FFFFEF470000F07F51302DD5104987C00A
:1050E000F0B54A005708954A87B005000C00CE0F6E
:1050F000974200D8A6E0924A974214D90B031B0BA3
:10510000034308D002000B0028002100FBF702F93E
:1051100005000C0003E0002E01D000252C00280023
:10512000210007B0F0BD874A874BFBF7A3F80028A2
:1051300006D0864A864B10001900FCF72FF8E7E7E7
:10514000844A854B28002100FBF780F80028E4D131
:10515000824BF20000929F4200D987E0804B2100F1
:105160009B181A685B682800FCF798FA0290039174
:1051700001207C4BF2009B18801B5C681B68049329
:105180000594831B0093049A059B02980399FCF7EE
:1051900085FA05000C002A00230028002100FBF7F7
:1051A000FDFF06000F00704A704BFBF7F7FF704AD7
:1051B000704BFCF773FA32003B00FBF7EFFF6E4ACF
:1051C0006E4BFBF7A7F832003B00FBF7E7FF6C4A9A
:1051D0006C4BFCF763FA32003B00FBF7DFFF6A4AD7
:1051E0006A4BFBF797F832003B00FBF7D7FF020052
:1051F0000B0028002100FCF751FA009B06000F006D
:105200000200002B60D10B0028002100FBF7C6FF35
:105210008023009001910022DB0530003900FCF76B
:105220003DFA02000B0000980199FBF783FB2A006E
:105230002300FCF733FA02000B0000205449FCF76E
:105240002DFA65E7534B9F4200D981E7524B9F42AD
:1052500035D83E4A3E4BFBF75DF800224C4BFBF73E
:1052600009F800282ED00022494B4DE7009B4B4FF8
:105270004B4AFF1828004B4B2100FBF78FFF3A6881
:105280007B68FBF747F8FCF71FFD0090FCF750FD2B
:10529000454A464B06000F00FBF780FF02000B005B
:1052A00028002100FCF7FAF9414A02900391414B92
:1052B00030003900FBF772FF0490059163E700238B
:1052C000009368E7009066E70B0028002100FBF7D9
:1052D00065FF0D008021040032003B000020C9055D
:1052E000FCF7DCF902000B0020002900FBF722FB91
:1052F00002000B0004980599FCF7D0F9029A039B71
:10530000FCF7CCF902000B0000202149FCF7C6F99C
:10531000294B009A9A4205DB009C0500260573186C
:105320001C00FCE6FA25AD00AC46009C002264445B
:10533000260573181900B8235B04FEE6412E86404B
:10534000FFFFEF7FEF39FAFE422E86409C75008802
:105350003CE4377E51302DD5104987C0B1A2F03FD3
:105360003055000840550008D0A4BE726937663E2B
:10537000F16BD2C541BDBB3E2CDE25AF6A56113F55
:1053800093BDBE166CC1663F3E5555555555C53F3C
:105390000000F03F422ED63FFFFF2F3E2055000871
:1053A000FE822B654715F73F0000E0FE422EE63FE8
:1053B000763C7935EF39EA3D03FCFFFF4800024BAC
:1053C0004008C018C00F70470000108000207047D0
:1053D000F8B5C046F8BC08BC9E467047F8B5C04654
:0853E000F8BC08BC9E467047B2
:1053E80002030405060708090A0B0C0D0E0F10101E
:1053F8000102030405060708090A0B0C0D0E0F101D
:10540800E0540008F141000800000000000000001E
:1054180080000000D854000809430008000000007C
:105428000000000080000000CC540008D9430008A8
:10543800FDFF000000000000800000002C0B0008A9
:105448000E0B0008C80A0008E6090008C80A000888
:10545800000B0008C80A0008E60900080E0B00083F
:105468000E0B0008000B0008E6090008DE0900081A
:10547800DE090008DE090008440D00088C13000846
:105488004C1200084C120008481200086413000867
:105498006413000856130008481200086413000833
:1054A8005613000864130008481200086C1300081B
:1054B8006C1300086C1300087015000849444C452B
:1054C800000000004D61696E5461736B00000000BC
:1054D80050696C6F74000000436865636B000000DE
:1054E800304800083C48000848480008524800086E
:1054F8005C48000866480008704800080000000082
:10550800000000000102030406070809000000006B
:105518000102030465787000000000000000E03F0D
:10552800000000000000E0BF0000E0FE422EE63F61
:105538000000E0FE422EE6BF763C7935EF39EA3DC1
:08554800763C7935EF39EABD2C
:04555000E900000866
:04555400C10000088A
:10555800AAAAAAAA000000000000000000003A4021
:1055680000127A001800002000000000000000006F
:105578000000000000000000000000000000000023
:105588000000000000000000000000000000000013
:105598000000000000000000000000000000000003
:1055A80000000000000000000000000000000000F3
:1055B80000000000000000000000000000000000E3
:0C55C800000000000000000001000000D6
:0400000508004C4162
:00000001FF
